:020000040800F2
:10000000B0020020890100088D0100088F0100085E
:10001000910100089301000895010008000000000C
:100020000000000000000000000000009701000830
:1000300099010008000000009B0100089D010008D4
:100040009F0100089F0100089F0100089F01000810
:100050009F0100089F0100089F0100089F01000800
:100060009F0100089F0100089F0100089F010008F0
:100070009F0100089F0100089F0100089F010008E0
:100080009F0100089F0100089F0100089F010008D0
:100090009F0100089F0100089F0100089F010008C0
:1000A0009F0100089F0100089F0100089F010008B0
:1000B0006F070008670800089F0100089F010008FB
:1000C0009F0100089F0100089F0100089F01000890
:1000D0009F010008D70700089F0100089F01000842
:1000E0009F0100089F0100089F01000800F002F82E
:1000F00000F03AF80AA090E8000C82448344AAF188
:100100000107DA4501D100F02FF8AFF2090EBAE885
:100110000F0013F0010F18BFFB1A43F0010318473B
:10012000BC120000DC120000103A24BF78C878C16D
:10013000FAD8520724BF30C830C144BF04680C60ED
:10014000704700000023002400250026103A28BF35
:1001500078C1FBD8520728BF30C148BF0B60704739
:100160001FB51FBD10B510BD00F02DFD1146FFF7E6
:10017000F7FF00F079FB00F04BFD03B4FFF7F2FF4F
:1001800003BC00F053FD000008480047FEE7FEE70F
:10019000FEE7FEE7FEE7FEE7FEE7FEE7FEE7FEE737
:1001A00003480449024A044B70470000ED00000870
:1001B000B0000020B0020020B000002000BFFE49C7
:1001C000098801F040014029F9D1C1B2FA4A121D53
:1001D00011807047F948806940F00400F749886150
:1001E0000846806940F480408861F548006840F026
:1001F0003000F34908600846006820F0C00008603D
:100200000846006840F0800008600846006820F456
:10021000407008600846006820F4406008600846A6
:10022000006840F48060086040F24130E2490831E3
:100230000880081D008840F00C00091D0880084651
:10024000008840F4005008807047002100BF0CE097
:1002500000BFD94A128802F04002402AF9D1425C1C
:10026000D54B1B1D1A804A1CD1B2425C002AEFD12B
:1002700000BFD14A128802F04002402AF9D10D2273
:10028000CD4B1B1D1A8070470EB50146002000BFE4
:1002900004E000220DF80020421CD0B20A28F8DB4E
:1002A00000200CE00A2291FBF2F302FB1312D2B2FF
:1002B0000DF80020421CD0B20A2291FBF2F1002975
:1002C000F0DC0FE000BFBC4A128802F04002402A76
:1002D000F9D1421E1DF802203032B74B1B1D1A8087
:1002E000421ED0B20028EDD10EBDB448C06940F026
:1002F0000100B249C8618804008840F08400890484
:1003000008800846808940F00100888100208885A7
:1003100041F63F700885002088840846808A40F0B6
:1003200040008882704700204FF080418884084652
:10033000008840F00100088070474FF0804000883E
:1003400020F001004FF080410880704700B5024660
:10035000FFF7F3FF00204FF0804188840846828534
:10036000FFF7E1FF00BD30B502460B46002010E06C
:1003700012F8014B6040002109E000F080041CB13C
:10038000312484EA400400E04400E0B2491C08291A
:10039000F3D31C1EA3F10103EAD130BD01460029AD
:1003A00004DD0820864A0C32106003E00820844AED
:1003B0000C321060002070470246012A0DD100293E
:1003C00004DD08207E4B0C33186006E04FF400205B
:1003D0007B4B0C33186000207047022A0DD1002996
:1003E00004DD0820764B0C33186006E04FF4002043
:1003F000734B0C3318600020EEE7032A0DD100295F
:1004000004DD08206E4B0C33186006E04FF400202A
:100410006B4B0C3318600020DEE71F20DCE710B5C3
:10042000044621460120FFF7C7FF601E4FF08041C0
:10043000088664480460002010BD2DE9F34F8DB09C
:100440008846614801680D9800F052FF0C905F48A3
:100450000168404600F04CFF0B900C9800F0CAFD7C
:1004600004465B4A5B4B00F0E9FB064600F03EFDAC
:100470000A900B9800F0BEFD0446554A554B00F01B
:10048000DDFB064600F032FD09900021404600F0F9
:100490004BFE08D100210D9800F046FE03D100204C
:1004A0000FB0BDE8F08F00210D9800F03DFE09D19E
:1004B0000021404600F038FE04D00998FFF76EFF97
:1004C0000020EDE70021404600F02EFE06D100217D
:1004D0000D9800F029FE01D00020E1E741460D987B
:1004E00000F022FE01D10020DAE741460D9800F02D
:1004F0001BFE7FD00D9800F07DFD354A354BCDE9D0
:10050000000100F09BFBCDE9020100F0EFFC054685
:10051000404600F06FFD2E4A2E4BCDE9000100F061
:100520008DFBCDE9020100F0E1FC064600200890B9
:100530000790281E01DB014600E041428946002168
:100540000D9800F0A4FE01D2012001E04FF0FF3031
:100550000690301E01DB014600E041420F46414655
:10056000002000F015FE01D2012001E04FF0FF3025
:100570000590B94501DD484600E07842441000206E
:1005800004908246834600BFAA4502D1B34500D1FC
:1005900027E02846FFF743FF3046FFF7FFFE0494AD
:1005A000C9F10000049C844202DDE41B06988244E9
:1005B0000498B842E8DA10E0003801400010024028
:1005C000040801401400002004000020080000205E
:1005D000B81E85EB51B8BE3F0CE04C4405988344EF
:1005E000D2E700BFFA490D980860FA48C0F80080C9
:1005F000002055E700BF53E7704718B94FF000716E
:10060000F54A1160012802D14102F34A1160F34911
:100610000870704700B5F248C06940F00200F04928
:10062000C861F048006840F04070EE490860084634
:10063000006840F0006008600846006840F04050E4
:1006400008600846006840F000400860E248103842
:10065000006840F00300E04910390860084600686F
:1006600040F008000860DF480068DF490843DD49C2
:1006700008600846006820F480000860DB480088B5
:1006800020F07000D94908800846008820F44070A6
:1006900008800846008840F0080008804FF47A700F
:1006A000D2492C3108804010D049343108800820CC
:1006B000CE49283108800520CC4930310880CB480C
:1006C0001430008840F00100C84914310880081D2A
:1006D00000884FF68F710840C449183108800846D9
:1006E00000884FF6FC710840C04918310880084660
:1006F000008840F070000880BC48203000884FF629
:10070000FD710840B949203108800846008840F052
:10071000010008800020FFF770FF0020AF4908703B
:100720004870488000BD40EAC1024FF080439A847F
:10073000704770470146002901DB08467047484270
:10074000FCE701464A10B2F5FA7F01DA0120704752
:10075000A7480180A648083002800020A44B083B2F
:10076000188000BFF3E7014600207047704700B5CE
:100770004FF08040008A20F001004FF08041088255
:100780000846008A20F040000882FFF7D6FD99A0B5
:10079000FFF75BFD9F48007850B99FA0FFF755FD1C
:1007A00000209F4908709B4800789E4908700BE024
:1007B000984800783030FFF701FD01209849087013
:1007C000944800789749087097A0FFF73EFD0020F5
:1007D0009049087000BD00B50023FFF7AEFD9448B6
:1007E0000088C3B293488B490978435489480078FC
:1007F000401C884908700A20FFF7A8FD00BD784812
:10080000006840F480307649086000BF7448006892
:1008100000F400300028F9D07148406840F0010031
:100820006F4948600846806944F2040108436C49F6
:1008300088617F480830008840F020007C490831FA
:1008400008806748806940F0040065498861654810
:10085000006820F00C00634908600846006840F01A
:1008600001000860704770470024FFF7C8FFFFF7DA
:10087000B1FCFFF73AFDFFF7CDFE1C2000F08EF92A
:100880001D2000F08BF9252000F088F985E16AA091
:10089000FFF7DBFC5548008840F001005349088011
:1008A0005F48007801287DD100205D4908705D48CF
:1008B0000078052806DA15206149087061A0FFF765
:1008C000C4FC6AE15B4800785B280CD15948554963
:1008D0000978405C5D2806D11320594908705FA053
:1008E000FFF7B3FC59E162A0FFF7AFFC4D48007879
:1008F000811E5048401CFFF736FD6149087061A019
:10090000FFF7A3FC4B484078412802D162A0FFF7D3
:100910009CFC484840781E2802D164A0FFF795FC53
:10092000444840781F2802D165A0FFF78EFC41485B
:100930004078202802D167A0FFF787FC3D48407827
:10094000212802D168A0FFF780FC3A48407822288D
:1009500002D16AA0FFF779FC36484078302805D1EB
:100960006BA0FFF772FC00206E4908803148407888
:100970002F2805D16CA0FFF768FC0020694948804A
:100980002C484078322805D16CA0FFF75EFC00208F
:100990006449888027484078332807D16DA0FFF745
:1009A00054FC00E00DE000205E49C88021484078FA
:1009B0001A2806D16DA0FFF748FC1E498878FFF77A
:1009C0001CFE01200749103108600024D7E0000018
:1009D0000400002008000020100C0140000000204E
:1009E00000100240000801400030330000040040C5
:1009F0002C2C014054696D6520697320676F6E650A
:100A00002E20446174612072656365697665206992
:100A100073200000210000207A65726F0000000042
:100A20002200002023000020202021202020000080
:100A300004380140320000206869212000000000D5
:100A400024000020434F4D4D414E445F4C455353CD
:100A50005F355F434841522020000000535441520B
:100A6000545F53544F505F554E434F525220200015
:100A7000474F20544F2043524338202000000000AD
:100A80002500002052455455524E2046524F4D20CD
:100A900043524338202000004D4F565F5354455079
:100AA000535F585F504C5553202000004D4F565F08
:100AB00053544550535F585F4D494E5553202000C5
:100AC0004D4F565F53544550535F595F504C5553EB
:100AD000202000004D4F565F53544550535F595FDF
:100AE0004D494E55532020004D4F565F53544550AD
:100AF000535F5A5F504C5553202000004D4F565FB6
:100B000053544550535F5A5F4D494E555320200072
:100B10004D4F565F43415252494147455F4652450A
:100B200045000000280000204D4F565F43415252BF
:100B3000494147455F574F524B0000004D4F565FAC
:100B400043415252494147455F41545F5A5F4652C3
:100B5000454500004D4F565F43415252494147457C
:100B60005F41545F5A5F574F524B00005348504902
:100B70004E444C455F4D4F4445000000641C0D48F9
:100B80008442FBDB4FF480300B490860002400E016
:100B9000641C0A488442FBDB00BF78E600F01F02B9
:100BA000012191404209920002F1E022C2F80011B5
:100BB0007047000020A1070010080140A086010036
:100BC000704770477047754600F02CF8AE46050038
:100BD0006946534620F00700854618B020B5FFF758
:100BE000DFFABDE820404FF000064FF000074FF05D
:100BF00000084FF0000B21F00701AC46ACE8C0093B
:100C0000ACE8C009ACE8C009ACE8C0098D46704743
:100C100010B50446AFF300802046BDE81040FFF752
:100C2000ACBA00000048704750000020014918206D
:100C3000ABBEFEE726000200704700002DE9C04170
:100C400030B4DFF8A0C23CEA111418BF3CEA131418
:100C500000F0EC8081EA03051CEA111444EAD57423
:100C600018BF1CEA131500F0C780A4EB05044FF071
:100C7000004545EAC12145EAC32341EA505143EA10
:100C8000525304F17F74994204F500344FEAC020B6
:100C90004FEAC22208BF904200F09C804FEA1365E1
:100CA0000FF24016765D4FEA134506FB05F7C7F1D4
:100CB000807706FB07F74FEAD737A7FB0368764232
:100CC000C8F58038A7FB06CE38BFA8F1010807FB9E
:100CD00008E64FF0000EA6FB028CE6FB03CEDCF12B
:100CE000000CCEF1004E38BFAEF1010EA6FB0C5841
:100CF0004FF000074FF00005E6FB0E87A1FB08C68A
:100D0000A0FB07CE16EB0E0645F10005E1FB0765DB
:100D100015F1E04E7EBFA4F580345FEA46066D41D2
:100D200016F1800745F100054FEA17274FEA0666DE
:100D300047EA0567A6F1DE46B6F1805F4FEA152562
:100D40001FD9384624F0010C05EBC471BCF1FE6FCD
:100D500001EB0C1102D8F0BCBDE8008124425CBF5D
:100D600001F5801E9EEAC47F02D4F0BCBDE800817C
:100D7000244238D4F0BCA1F1C041BDE8004100F0EC
:100D800032B94FEAD22242EA43524FEAD323A7FBB9
:100D900002864FEAD02040EA415007FB03661EEA74
:100DA0000E0F4FEAD12105FB026658BFA6EB005695
:100DB000B6EB00564FEA520E4EEAC37E18EB0E0E0B
:100DC00056EB530EBDD518EB02085E417F1C55F162
:100DD0000005B6E74FF480154FF000074FF000060E
:100DE0004FF00008ADE7F0BC4FF0000001F1C0414A
:100DF00001F00041BDE8008111EA0C1F0CEA131557
:100E000000D00CE013EA0C1F00F025804FF000002A
:100E1000F0BC81EA030101F00041BDE80081F0BCB3
:100E2000BDE8004181EA030100F0DDB8F0BCBDE897
:100E3000004170B500F089F8097EFC3E00F007B86B
:100E400081EA03014FF0000001F00041704781EAA0
:100E5000030100F0C8B8F0BCBDE800414FF000004D
:100E600021497047FFFDFBF9F7F5F4F2F0EEEDEBE9
:100E7000E9E8E6E4E3E1E0DEDDDBDAD8D7D5D4D398
:100E8000D1D0CFCDCCCBCAC8C7C6C5C4C2C1C0BFE4
:100E9000BEBDBCBBBAB9B8B7B6B5B4B3B2B1B0AFEA
:100EA000AEADACABAAA9A8A8A7A6A5A4A3A3A2A1CE
:100EB000A09F9F9E9D9C9C9B9A9999989797969589
:100EC00095949393929191908F8F8E8E8D8C8C8B25
:100ED0008B8A8989888887878685858484838382AD
:100EE000828181800000FF070000F87F4FEA410304
:100EF0004FEA5353A3F58063D3F11E03C8BFD3F168
:100F0000210C0CDD4FF0004242EAC12242EA50526D
:100F100032FA03FC8CEAE17CACEBE1707047102BF9
:100F2000C4BF0020704703F5787CBCF1FF3F04D0BC
:100F30006FF0004282EA2100704770B500F005F8BA
:100F40004992248000207047F2E70EF1020E2EF045
:100F5000030E5EF8046B364205D4012A43EB030509
:100F600015F5001F12D8012841EB010C1CF5001FDC
:100F70000CD80ED14FEAD17C15F5001F0CEB4C0CB0
:100F80000CF1020C08BF4CEBD37C04E04FF0080CD2
:100F900001E04FEAD37C0CEB4C0526FA05F606F08F
:100FA0000706B6F1040C06D20EEB860CBDE87040C5
:100FB0004CF0010C6047DFE80CF0090B02024FF027
:100FC00000414FF00000A1F5002170BD1946104608
:100FD000012851EB010418BFD4F5001484BF002090
:100FE00001F0004170BD0808A0F500114FEA310181
:100FF0007047000043004FEAD30C4FEA3C0C4340DB
:101000001FBF40070CF1605113F0FE4F70471CF0FA
:10101000006F03D100200CF0004170470CF000433A
:1010200043EA507010B540EACC0000F0E5F800BF8C
:10103000000000924FEA0001FFF7D5BF4FF00041DA
:101040004FF00000A1F500217047000090EA010F69
:1010500048BF81F0004100F15281421A3CBF801A22
:1010600089184FEAD0524FF07F4C1CEA410FA2EB97
:10107000D15318BF9CEA026F00F03B804FF0004C48
:101080004CEA00204CEA012121FA03FC10EB0C0C85
:101090001ED202F1FF325FEA1C2040EBC25038BF83
:1010A00070471CF07F0F4FEA400C18BFBCF17F4F18
:1010B00038BF7047C3F12003994008BF20F00100FA
:1010C000BCF17F4F38BF7047A0F1C04000F0DAB8E4
:1010D0004FEA3C00000A40EBC25028BF1CF0FF0F53
:1010E0004FEA400CE6D018BFBCF17F4F38BF7047C5
:1010F000EAE79CEA026F05D010EA5C0F08BF00F037
:101100000040704710B500F077F800BF64FBBE3EAA
:10111000401058BFC0F14040491058BFC1F1404194
:101120008142EFF30080704750EA010C00F1138018
:101130001CF5000F58BFBCF5000F01D48842704762
:1011400007D710F5000F58BF11F5000F15D48842CE
:101150007047894270471CF5000F04D5BCF5000F9D
:10116000F7D5814270474FF0807C1CEB400F38BFB1
:101170001CEB410F01D28142704710B500F03CF8E2
:10118000922449004FF000504FF08051FFF7C0BF4C
:1011900050EA010C00F113801CF5000F58BFBCF59C
:1011A000000F01D48842704707D710F5000F58BFD1
:1011B00011F5000F15D488427047894270471CF51D
:1011C000000F04D5BCF5000FF7D5814270474FF0F2
:1011D000807C1CEB400F38BF1CEB410F01D28142D9
:1011E000704710B500F008F8922449004FF0005005
:1011F0004FF08051FFF78CBF0EF1020E2EF0030E60
:101200005EF8044B244204D44FEA4102B2F17F4F0E
:1012100011D84FEA4003B3F17F4F0CD80ED14FEAFB
:10122000D07CB2F17F4F0CEB4C0C0CF1020C08BFE0
:101230004CEBD17C04E04FF0080C01E04FEAD17C8C
:101240000CEB4C0324FA03F404F00704B4F1040C8F
:1012500006D20EEB840CBDE810404CF0010C604748
:10126000DFE80CF0070802024FF00040A0F5800014
:1012700010BD0846420018BFD2F1807288BF00F04E
:10128000004010BDFF2141EAD050C005704751EA2F
:10129000000C00F113801CF5000F58BFBCF5000FC7
:1012A00001D48142704707D711F5000F58BF10F5E0
:1012B000000F15D481427047894270471CF5000F1A
:1012C00004D5BCF5000FF7D5884270474FF0807CFD
:1012D0001CEB410F38BF1CEB400F01D28842704716
:1012E00080EA010081EA000180EA0100FFF779BF8E
:1012F00090EA010F48BF81F000413FF5AEAE421ABF
:1013000004D882F00042A0EB020011444FEAD05210
:101310004FF07F4C1CEA410FA2EBD15318BF9CEA5F
:10132000026F4AD04FF0004C4CEA00204CEA0121F9
:1013300021FA03FCB0EB0C0C0FD412F0FE0F36D0E8
:101340005FEA4C001DD5001240EBC25038BF704719
:101350001CF03F0F18BF70470BE0A2F101025FEADB
:101360001C2040EBC25038BF70471CF07F0F18BFE5
:101370007047C3F12003994014BF401E20F00100C4
:10138000704780084FEA122308BF7047B0FA80FC0C
:10139000A2EB0C02CCF1280C60FA0CF093EA122FAD
:1013A00004BF00EBC25070474FEAC3707047130A86
:1013B0005FEADC1008BF7047F6E79CEA026F04D0D2
:1013C00010EA5C0F08BF0020704710B5FFF714FF4C
:1013D00040DFF63E81F0004070470000FC1300083B
:1013E0000000002028000000280100082414000844
:1013F00028000020880200004401000800000000CE
:1014000000000000000000000000000014C814C824
:1014100000000000000000000000000000000000CC
:0414200001000000C7
:040000050800018965
:00000001FF
