:020000040800F2
:10000000B0020020890100088D0100088F0100085E
:10001000910100089301000895010008000000000C
:100020000000000000000000000000009701000830
:1000300099010008000000009B0100089D010008D4
:100040009F0100089F0100089F0100089F01000810
:100050009F0100089F0100089F0100089F01000800
:100060009F0100089F0100089F0100089F010008F0
:100070009F0100089F0100089F0100089F010008E0
:100080009F0100089F0100089F0100089F010008D0
:100090009F0100089F0100089F0100089F010008C0
:1000A0009F0100089F0100089F0100089F010008B0
:1000B0006F070008670800089F0100089F010008FB
:1000C0009F0100089F0100089F0100089F01000890
:1000D0009F010008D70700089F0100089F01000842
:1000E0009F0100089F0100089F01000800F002F82E
:1000F00000F03AF80AA090E8000C82448344AAF188
:100100000107DA4501D100F02FF8AFF2090EBAE885
:100110000F0013F0010F18BFFB1A43F0010318473B
:100120003813000058130000103A24BF78C878C173
:10013000FAD8520724BF30C830C144BF04680C60ED
:10014000704700000023002400250026103A28BF35
:1001500078C1FBD8520728BF30C148BF0B60704739
:100160001FB51FBD10B510BD00F06BFD1146FFF7A8
:10017000F7FF00F079FB00F089FD03B4FFF7F2FF11
:1001800003BC00F091FD000008480047FEE7FEE7D1
:10019000FEE7FEE7FEE7FEE7FEE7FEE7FEE7FEE737
:1001A00003480449024A044B70470000ED00000870
:1001B000B0000020B0020020B000002000BFFE49C7
:1001C000098801F040014029F9D1C1B2FA4A121D53
:1001D00011807047F948806940F00400F749886150
:1001E0000846806940F480408861F548006840F026
:1001F0003000F34908600846006820F0C00008603D
:100200000846006840F0800008600846006820F456
:10021000407008600846006820F4406008600846A6
:10022000006840F48060086040F24130E2490831E3
:100230000880081D008840F00C00091D0880084651
:10024000008840F4005008807047002100BF0CE097
:1002500000BFD94A128802F04002402AF9D1425C1C
:10026000D54B1B1D1A804A1CD1B2425C002AEFD12B
:1002700000BFD14A128802F04002402AF9D10D2273
:10028000CD4B1B1D1A8070470EB50146002000BFE4
:1002900004E000220DF80020421CD0B20A28F8DB4E
:1002A00000200CE00A2291FBF2F302FB1312D2B2FF
:1002B0000DF80020421CD0B20A2291FBF2F1002975
:1002C000F0DC0FE000BFBC4A128802F04002402A76
:1002D000F9D1421E1DF802203032B74B1B1D1A8087
:1002E000421ED0B20028EDD10EBDB448C06940F026
:1002F0000100B249C8618804008840F08400890484
:1003000008800846808940F00100888100208885A7
:1003100041F63F700885002088840846808A40F0B6
:1003200040008882704700204FF080418884084652
:10033000008840F00100088070474FF0804000883E
:1003400020F001004FF080410880704700B5024660
:10035000FFF7F3FF00204FF0804188840846828534
:10036000FFF7E1FF00BD30B502460B46002010E06C
:1003700012F8014B6040002109E000F080041CB13C
:10038000312484EA400400E04400E0B2491C08291A
:10039000F3D31C1EA3F10103EAD130BD01460029AD
:1003A00004DD0820864A0C32106003E00820844AED
:1003B0000C321060002070470246012A0DD100293E
:1003C00004DD08207E4B0C33186006E04FF400205B
:1003D0007B4B0C33186000207047022A0DD1002996
:1003E00004DD0820764B0C33186006E04FF4002043
:1003F000734B0C3318600020EEE7032A0DD100295F
:1004000004DD08206E4B0C33186006E04FF400202A
:100410006B4B0C3318600020DEE71F20DCE710B5C3
:10042000044621460120FFF7C7FF601E4FF08041C0
:10043000088664480460002010BD2DE9F34F8DB09C
:100440008846614801680D9800F090FF0C905F4865
:100450000168404600F08AFF0B900C9800F008FEFF
:1004600004465B4A5B4B00F027FC064600F07CFD2F
:100470000A900B9800F0FCFD0446554A554B00F0DD
:100480001BFC064600F070FD09900021404600F07C
:1004900089FE08D100210D9800F084FE03D10020D0
:1004A0000FB0BDE8F08F00210D9800F07BFE09D160
:1004B0000021404600F076FE04D00998FFF76EFF59
:1004C0000020EDE70021404600F06CFE06D100213F
:1004D0000D9800F067FE01D00020E1E741460D983D
:1004E00000F060FE01D10020DAE741460D9800F0EF
:1004F00059FE7FD00D9800F0BBFD354A354BCDE954
:10050000000100F0D9FBCDE9020100F02DFD054608
:10051000404600F0ADFD2E4A2E4BCDE9000100F023
:10052000CBFBCDE9020100F01FFD0646002008903C
:100530000790281E01DB014600E041428946002168
:100540000D9800F0E2FE01D2012001E04FF0FF30F3
:100550000690301E01DB014600E041420F46414655
:10056000002000F053FE01D2012001E04FF0FF30E7
:100570000590B94501DD484600E07842441000206E
:1005800004908246834600BFAA4502D1B34500D1FC
:1005900027E02846FFF743FF3046FFF7FFFE0494AD
:1005A000C9F10000049C844202DDE41B06988244E9
:1005B0000498B842E8DA10E0003801400010024028
:1005C000040801401400002004000020080000205E
:1005D000B81E85EB51B8BE3F0CE04C4405988344EF
:1005E000D2E700BFFE490D980860FE48C0F80080C1
:1005F000002055E700BF53E7704718B94FF000716E
:10060000F94A1160012802D14102F74A1160F74905
:100610000870704700B5F648C06940F00200F44920
:10062000C861F448006840F04070F249086008462C
:10063000006840F0006008600846006840F04050E4
:1006400008600846006840F000400860E64810383E
:10065000006840F00300E44910390860084600686B
:1006600040F008000860E3480068E3490843E149B6
:1006700008600846006820F480000860DF480088B1
:1006800020F07000DD4908800846008820F44070A2
:1006900008800846008840F0080008804FF47A700F
:1006A000D6492C3108804010D449343108800820C4
:1006B000D249283108800520D04930310880CF4800
:1006C0001430008840F00100CC4914310880081D26
:1006D00000884FF68F710840C849183108800846D5
:1006E00000884FF6FC710840C4491831088008465C
:1006F000008840F070000880C048203000884FF625
:10070000FD710840BD49203108800846008840F04E
:10071000010008800020FFF770FF0020B349087037
:100720004870488000BD40EAC1024FF080439A847F
:10073000704770470146002901DB08467047484270
:10074000FCE701464A10B2F5FA7F01DA0120704752
:10075000AB480180AA48083002800020A84B083B23
:10076000188000BFF3E7014600207047704700B5CE
:100770004FF08040008A20F001004FF08041088255
:100780000846008A20F040000882FFF7D6FD9DA0B1
:10079000FFF75BFDA348007850B9A3A0FFF755FD14
:1007A0000020A34908709F480078A24908700BE018
:1007B0009C4800783030FFF701FD01209C4908700B
:1007C000984800789B4908709BA0FFF73EFD0020E9
:1007D0009449087000BD00B50023FFF7AEFD9848AE
:1007E0000088C3B297488F49097843548D480078F0
:1007F000401C8C4908700A20FFF7A8FD00BD7C480A
:10080000006840F480307A49086000BF784800688A
:1008100000F400300028F9D07548406840F001002D
:10082000734948600846806944F2040108437049EE
:10083000886183480830008840F0200080490831F2
:1008400008806B48806940F0040069498861694804
:10085000006820F00C00674908600846006840F016
:1008600001000860704770470024FFF7C8FFFFF7DA
:10087000B1FCFFF73AFDFFF7CDFE1C2000F0B6F902
:100880001D2000F0B3F9252000F0B0F9ADE16EA015
:10089000FFF7DBFC5948008840F001005749088009
:1008A0006348007801287DD10020614908706148C3
:1008B0000078052806DA15206549087065A0FFF75D
:1008C000C4FC92E15F4800785B280CD15D4859492F
:1008D0000978405C5D2806D113205D49087063A04B
:1008E000FFF7B3FC81E166A0FFF7AFFC5148007849
:1008F000811E5448401CFFF736FD6549087065A00D
:10090000FFF7A3FC4F484078412802D166A0FFF7CB
:100910009CFC4C4840781E2802D168A0FFF795FC4B
:10092000484840781F2802D169A0FFF78EFC45484F
:100930004078202802D16BA0FFF787FC414840781F
:10094000212802D16CA0FFF780FC3E484078222885
:1009500002D16EA0FFF779FC3A484078302805D1E3
:100960006FA0FFF772FC002072490880354840787C
:100970002F2805D170A0FFF768FC00206D49488042
:1009800030484078322805D170A0FFF75EFC002087
:10099000684988802B484078332807D171A0FFF739
:1009A00054FC00E00DE100206249C88025484078F1
:1009B0001A2806D171A0FFF748FC22498878FFF772
:1009C0001CFE20484078342807D16CA0FFF73DFC7E
:1009D0001C488078092801D2D8E0EBE0E5E000006F
:1009E0000400002008000020100C0140000000203E
:1009F00000100240000801400030330000040040B5
:100A00002C2C014054696D6520697320676F6E65F9
:100A10002E20446174612072656365697665206982
:100A200073200000210000207A65726F0000000032
:100A30002200002023000020202021202020000070
:100A400004380140320000206869212000000000C5
:100A500024000020434F4D4D414E445F4C455353BD
:100A60005F355F43484152202000000053544152FB
:100A7000545F53544F505F554E434F525220200005
:100A8000474F20544F20435243382020000000009D
:100A90002500002052455455524E2046524F4D20BD
:100AA00043524338202000004D4F565F5354455069
:100AB000535F585F504C5553202000004D4F565FF8
:100AC00053544550535F585F4D494E5553202000B5
:100AD0004D4F565F53544550535F595F504C5553DB
:100AE000202000004D4F565F53544550535F595FCF
:100AF0004D494E55532020004D4F565F535445509D
:100B0000535F5A5F504C5553202000004D4F565FA5
:100B100053544550535F5A5F4D494E555320200062
:100B20004D4F565F43415252494147455F465245FA
:100B300045000000280000204D4F565F43415252AF
:100B4000494147455F574F524B0000004D4F565F9C
:100B500043415252494147455F41545F5A5F4652B3
:100B6000454500004D4F565F43415252494147456C
:100B70005F41545F5A5F574F524B000053485049F2
:100B80004E444C455F4D4F4445000000DFE800F007
:100B90000D05060708090A0B0C000AE009E008E049
:100BA00007E006E005E004E003E016A0FFF74DFBD8
:100BB00000BF00BF18484078352802D117A0FFF7C2
:100BC00044FB01201A490860002400E0641C194815
:100BD0008442FBDB4FF4803015490860002400E0BC
:100BE000641C15488442FBDB00BF50E600F01F0286
:100BF000012191404209920002F1E022C2F8001165
:100C0000704700006572726F7220696E20676F74A2
:100C10006F2064617461000032000020454E445F23
:100C2000534F4E534F52535F53544154555300004A
:100C30001008014020A10700A086010070477047FE
:100C40007047754600F02CF8AE46050069465346DD
:100C500020F00700854618B020B5FFF7A1FABDE8DF
:100C600020404FF000064FF000074FF000084FF013
:100C7000000B21F00701AC46ACE8C009ACE8C009A4
:100C8000ACE8C009ACE8C0098D46704710B5044611
:100C9000AFF300802046BDE81040FFF76EBA0000B9
:100CA000004870475000002001491820ABBEFEE705
:100CB00026000200704700002DE9C04130B4DFF883
:100CC000A0C23CEA111418BF3CEA131400F0EC80F7
:100CD00081EA03051CEA111444EAD57418BF1CEA22
:100CE000131500F0C780A4EB05044FF0004545EA5A
:100CF000C12145EAC32341EA505143EA525304F16A
:100D00007F74994204F500344FEAC0204FEAC222B2
:100D100008BF904200F09C804FEA13650FF2401626
:100D2000765D4FEA134506FB05F7C7F1807706FBB2
:100D300007F74FEAD737A7FB03687642C8F5803834
:100D4000A7FB06CE38BFA8F1010807FB08E64FF065
:100D5000000EA6FB028CE6FB03CEDCF1000CCEF10C
:100D6000004E38BFAEF1010EA6FB0C584FF0000745
:100D70004FF00005E6FB0E87A1FB08C6A0FB07CEDF
:100D800016EB0E0645F10005E1FB076515F1E04E97
:100D90007EBFA4F580345FEA46066D4116F18007F8
:100DA00045F100054FEA17274FEA066647EA05674F
:100DB000A6F1DE46B6F1805F4FEA15251FD9384609
:100DC00024F0010C05EBC471BCF1FE6F01EB0C11BA
:100DD00002D8F0BCBDE8008124425CBF01F5801E52
:100DE0009EEAC47F02D4F0BCBDE80081244238D41E
:100DF000F0BCA1F1C041BDE8004100F032B94FEABA
:100E0000D22242EA43524FEAD323A7FB02864FEA9B
:100E1000D02040EA415007FB03661EEA0E0F4FEA5E
:100E2000D12105FB026658BFA6EB0056B6EB005673
:100E30004FEA520E4EEAC37E18EB0E0E56EB530EDF
:100E4000BDD518EB02085E417F1C55F10005B6E7E1
:100E50004FF480154FF000074FF000064FF00008E8
:100E6000ADE7F0BC4FF0000001F1C04101F00041DE
:100E7000BDE8008111EA0C1F0CEA131500D00CE04C
:100E800013EA0C1F00F025804FF00000F0BC81EA4F
:100E9000030101F00041BDE80081F0BCBDE8004164
:100EA00081EA030100F0DDB8F0BCBDE8004170B597
:100EB00000F089F8097EFC3E00F007B881EA0301E2
:100EC0004FF0000001F00041704781EA030100F09B
:100ED000C8B8F0BCBDE800414FF0000021497047A0
:100EE000FFFDFBF9F7F5F4F2F0EEEDEBE9E8E6E4EF
:100EF000E3E1E0DEDDDBDAD8D7D5D4D3D1D0CFCD76
:100F0000CCCBCAC8C7C6C5C4C2C1C0BFBEBDBCBBAE
:100F1000BAB9B8B7B6B5B4B3B2B1B0AFAEADACABA9
:100F2000AAA9A8A8A7A6A5A4A3A3A2A1A09F9F9E83
:100F30009D9C9C9B9A999998979796959594939335
:100F4000929191908F8F8E8E8D8C8C8B8B8A8989CC
:100F5000888887878685858484838382828181804F
:100F60000000FF070000F87F4FEA41034FEA5353A8
:100F7000A3F58063D3F11E03C8BFD3F1210C0CDDB0
:100F80004FF0004242EAC12242EA505232FA03FCD8
:100F90008CEAE17CACEBE1707047102BC4BF002001
:100FA000704703F5787CBCF1FF3F04D06FF000423E
:100FB00082EA2100704770B500F005F8499224805C
:100FC00000207047F2E70EF1020E2EF0030E5EF8DD
:100FD000046B364205D4012A43EB030515F5001FC7
:100FE00012D8012841EB010C1CF5001F0CD80ED1C2
:100FF0004FEAD17C15F5001F0CEB4C0C0CF1020CE8
:1010000008BF4CEBD37C04E04FF0080C01E04FEA42
:10101000D37C0CEB4C0526FA05F606F00706B6F174
:10102000040C06D20EEB860CBDE870404CF0010CAF
:101030006047DFE80CF0090B02024FF000414FF06F
:101040000000A1F5002170BD19461046012851EBA2
:10105000010418BFD4F5001484BF002001F0004142
:1010600070BD0808A0F500114FEA3101704700007B
:1010700043004FEAD30C4FEA3C0C43401FBF4007EC
:101080000CF1605113F0FE4F70471CF0006F03D15C
:1010900000200CF0004170470CF0004343EA507010
:1010A00010B540EACC0000F0E5F800BF0000009267
:1010B0004FEA0001FFF7D5BF4FF000414FF00000AD
:1010C000A1F500217047000090EA010F48BF81F0B0
:1010D000004100F15281421A3CBF801A89184FEA40
:1010E000D0524FF07F4C1CEA410FA2EBD15318BFF6
:1010F0009CEA026F00F03B804FF0004C4CEA00206D
:101100004CEA012121FA03FC10EB0C0C1ED202F177
:10111000FF325FEA1C2040EBC25038BF70471CF022
:101120007F0F4FEA400C18BFBCF17F4F38BF7047AC
:10113000C3F12003994008BF20F00100BCF17F4FAC
:1011400038BF7047A0F1C04000F0DAB84FEA3C0069
:10115000000A40EBC25028BF1CF0FF0F4FEA400CC2
:10116000E6D018BFBCF17F4F38BF7047EAE79CEA72
:10117000026F05D010EA5C0F08BF00F00040704716
:1011800010B500F077F800BF64FBBE3E401058BFBA
:10119000C0F14040491058BFC1F140418142EFF3D6
:1011A0000080704750EA010C00F113801CF5000F1D
:1011B00058BFBCF5000F01D48842704707D710F51F
:1011C000000F58BF11F5000F15D4884270478942AF
:1011D00070471CF5000F04D5BCF5000FF7D5814210
:1011E00070474FF0807C1CEB400F38BF1CEB410F69
:1011F00001D28142704710B500F03CF892244900BA
:101200004FF000504FF08051FFF7C0BF50EA010C83
:1012100000F113801CF5000F58BFBCF5000F01D47E
:101220008842704707D710F5000F58BF11F5000F1F
:1012300015D488427047894270471CF5000F04D5C9
:10124000BCF5000FF7D5814270474FF0807C1CEB56
:10125000400F38BF1CEB410F01D28142704710B5DF
:1012600000F008F8922449004FF000504FF08051F0
:10127000FFF78CBF0EF1020E2EF0030E5EF8044B4A
:10128000244204D44FEA4102B2F17F4F11D84FEA11
:101290004003B3F17F4F0CD80ED14FEAD07CB2F1AE
:1012A0007F4F0CEB4C0C0CF1020C08BF4CEBD17CCB
:1012B00004E04FF0080C01E04FEAD17C0CEB4C034A
:1012C00024FA03F404F00704B4F1040C06D20EEB84
:1012D000840CBDE810404CF0010C6047DFE80CF0D6
:1012E000070802024FF00040A0F5800010BD08463C
:1012F000420018BFD2F1807288BF00F0004010BDDC
:10130000FF2141EAD050C005704751EA000C00F1BE
:1013100013801CF5000F58BFBCF5000F01D48142AB
:10132000704707D711F5000F58BF10F5000F15D4FF
:1013300081427047894270471CF5000F04D5BCF507
:10134000000FF7D5884270474FF0807C1CEB410FAF
:1013500038BF1CEB400F01D28842704780EA010081
:1013600081EA000180EA0100FFF779BF90EA010FEE
:1013700048BF81F000413FF5AEAE421A04D882F07A
:101380000042A0EB020011444FEAD0524FF07F4CD4
:101390001CEA410FA2EBD15318BF9CEA026F4AD05E
:1013A0004FF0004C4CEA00204CEA012121FA03FCEA
:1013B000B0EB0C0C0FD412F0FE0F36D05FEA4C00ED
:1013C0001DD5001240EBC25038BF70471CF03F0FD4
:1013D00018BF70470BE0A2F101025FEA1C2040EB4E
:1013E000C25038BF70471CF07F0F18BF7047C3F161
:1013F0002003994014BF401E20F001007047800870
:101400004FEA122308BF7047B0FA80FCA2EB0C022F
:10141000CCF1280C60FA0CF093EA122F04BF00EB19
:10142000C25070474FEAC3707047130A5FEADC107E
:1014300008BF7047F6E79CEA026F04D010EA5C0F21
:1014400008BF0020704710B5FFF714FF40DFF63EDD
:1014500081F0004070470000781400080000002070
:101460002800000028010008A0140008280000201F
:101470008802000044010008000000000000000095
:10148000000000000000000014C814C800000000A4
:10149000000000000000000000000000010000004B
:040000050800018965
:00000001FF
