:020000040800F2
:10000000A8020020890100088D0100088F01000866
:10001000910100089301000895010008000000000C
:100020000000000000000000000000009701000830
:1000300099010008000000009B0100089D010008D4
:100040009F0100089F0100089F0100089F01000810
:100050009F0100089F0100089F0100089F01000800
:100060009F0100089F0100089F0100089F010008F0
:100070009F0100089F0100089F0100089F010008E0
:100080009F0100089F0100089F0100089F010008D0
:100090009F0100089F0100089F0100089F010008C0
:1000A0009F0100089F0100089F0100089F010008B0
:1000B0008F070008870800089F0100089F010008BB
:1000C0009F0100089F0100089F0100089F01000890
:1000D0009F010008F70700089F0100089F01000822
:1000E0009F0100089F0100089F01000800F002F82E
:1000F00000F03AF80AA090E8000C82448344AAF188
:100100000107DA4501D100F02FF8AFF2090EBAE885
:100110000F0013F0010F18BFFB1A43F0010318473B
:100120002C1100004C110000103A24BF78C878C18F
:10013000FAD8520724BF30C830C144BF04680C60ED
:10014000704700000023002400250026103A28BF35
:1001500078C1FBD8520728BF30C148BF0B60704739
:100160001FB51FBD10B510BD00F065FC1146FFF7AF
:10017000F7FF00F089FB00F083FC03B4FFF7F2FF08
:1001800003BC00F08BFC000008480047FEE7FEE7D8
:10019000FEE7FEE7FEE7FEE7FEE7FEE7FEE7FEE737
:1001A00003480449024A044B70470000ED00000870
:1001B000A8000020A8020020A800002000BFF849E5
:1001C000098801F040014029F9D1C1B2F44A121D59
:1001D00011807047F348806940F00400F14988615C
:1001E0000846806940F480408861EF48006840F02C
:1001F0003000ED4908600846006820F0C000086043
:100200000846006840F0800008600846006820F456
:10021000407008600846006820F4406008600846A6
:10022000006840F48060086040F24130DC490831E9
:100230000880081D008840F00C00091D0880084651
:10024000008840F4005008807047002100BF0CE097
:1002500000BFD34A128802F04002402AF9D1425C22
:10026000CF4B1B1D1A804A1CD1B2425C002AEFD131
:1002700070470EB50146002000BF04E000220DF8D3
:100280000020421CD0B20A28F8DB00200CE00A2231
:1002900091FBF2F302FB1312D2B20DF80020421CC4
:1002A000D0B20A2291FBF2F10029F0DC0FE000BF8E
:1002B000BB4A128802F04002402AF9D1421E1DF8C2
:1002C00002203032B64B1B1D1A80421ED0B20028CD
:1002D000EDD10EBDB348C06940F00100B149C8611D
:1002E0008804008840F084008904088008468089DA
:1002F00040F0010088810020888541F63F70088524
:10030000002088840846808A40F040008882704738
:1003100000204FF0804188840846008840F00100AA
:10032000088070474FF08040008820F001004FF0B7
:1003300080410880704700B50246FFF7F3FF0020B8
:100340004FF08041888408468285FFF7E1FF00BDB9
:1003500030B502460B46002010E012F8014B604019
:10036000002109E000F080041CB1312484EA40043B
:1003700000E04400E0B2491C0829F3D31C1EA3F19D
:100380000103EAD130BD8748806940F00800854903
:1003900088618648006820F0C000844908600846EB
:1003A000006840F0100008607047014621B94FF026
:1003B00000707E4A0C321060022903D108027B4A89
:1003C0000C321060002070470146642903DD6E295D
:1003D00001D00E207047642901DC754801700020AF
:1003E000F8E70146002904DD08206F4A0C3210604E
:1003F00003E008206C4A0C3210600020704702466F
:10040000012A0DD1002904DD0820674B0C33186048
:1004100006E04FF40020644B0C3318600020704756
:10042000022A0DD1002904DD08205F4B0C3318602F
:1004300006E04FF400205C4B0C3318600020EEE720
:10044000032A0DD1002904DD0820574B0C33186016
:1004500006E04FF40020544B0C3318600020DEE718
:100460001F20DCE710B5044621460120FFF7C7FF37
:10047000601E4FF0804108864E480460002010BD89
:100480002DE9F34F8DB088464B4801680D9800F078
:1004900067FE0C9049480168404600F061FE0B90F1
:1004A0000C9800F0DFFC0446454A464B00F0FEFA8B
:1004B000064600F053FC0A900B9800F0D3FC04466B
:1004C0003F4A404B00F0F2FA064600F047FC099024
:1004D0000021404600F060FD08D100210D9800F099
:1004E0005BFD03D100200FB0BDE8F08F00210D9817
:1004F00000F052FD09D10021404600F04DFD04D02E
:100500000998FFF76EFF0020EDE70021404600F05C
:1005100043FD06D100210D9800F03EFD01D00020E2
:10052000E1E741460D9800F037FD01D10020DAE700
:1005300041460D9800F030FD78D00D9800F092FC07
:100540001F4A204BCDE9000100F0B0FACDE90201CD
:1005500000F004FC0546404600F084FC184A194BA4
:10056000CDE9000100F0A2FACDE9020100F0F6FBAE
:100570000646002008900790281E01DB014600E097
:100580004142894600210D9800F0B9FD01D20120B9
:1005900001E04FF0FF300690301E15DB014614E0FD
:1005A000003801400010024004080140040C0140E2
:1005B0002200002010000020000000200400002085
:1005C000B81E85EB51B8BE3F41420F464146002060
:1005D00000F016FD01D2012001E04FF0FF30059040
:1005E000B94501DD484600E07842441000200490FF
:1005F0008246834600BFAA4502D1B34500D116E02A
:100600002846FFF72FFF3046FFF7EBFE0494C9F1B1
:100610000000049C844202DDE41B06988244049896
:10062000B842E8DA4C4405988344E4E708E000BFA8
:10063000C9490D980860C948C0F80080002052E7F9
:1006400000BF50E77047C648C06940F00200C44987
:10065000C861C448008820F07000C249088008467C
:10066000008820F4407008801420BE492C31088096
:100670000A20BC49343108800720BA492831088053
:100680000420B849303108800120B649143108806F
:100690000020B44908310880B248008840F00800C2
:1006A000B0490880AF48183000884FF68F71084075
:1006B000AC4918310880084600884FF6FC710840A4
:1006C000A849183108800846008840F0700008806A
:1006D000A448203000884FF6FD710840A149203120
:1006E0000880012008809F48008840F001009D4953
:1006F00008809D48006840F040709B4908600846AB
:10070000006840F0006008600846006840F0405013
:1007100008600846006840F00040086093480068A0
:1007200040F00300914908600846006840F0080066
:1007300008608D4800688E4908438B490860084668
:10074000006820F480000860704740EAC1024FF062
:1007500080439A84704770470146002901DB0846B0
:1007600070474842FCE701464A100A2A01DA012094
:100770007047804801807F480830028000207D4B10
:10078000083B188000BFF3E701460020704700B522
:100790004FF08040008A20F001004FF08041088235
:1007A0000846008A20F040000882FFF7BBFD72A0D7
:1007B000FFF74BFD7848007850B978A0FFF745FD6A
:1007C00000207849087074480078774908700BE079
:1007D000714800783030FFF7F1FC01207149087052
:1007E0006D4800787049087070A0FFF72EFD00205A
:1007F0006949087000BD00B50023FFF793FD6D48FF
:100800000088C3B26C486449097843546248007850
:10081000401C614908700A20FFF78DFD00BD50485B
:10082000006840F480304E49086000BF4C480068C2
:1008300000F400300028F9D04948406840F0010039
:10084000474948600846806944F204010843444926
:10085000886158480830008840F020005549083128
:1008600008803F48806940F004003D4988613E4867
:10087000006820F440403C4908600846006840F4A5
:100880008050086070477047FFF7C9FFFFF7A2FC70
:10089000FFF720FDFFF777FD48A0FFF7D6FCFFF735
:1008A000D2FE1C2000F04DF81D2000F04AF8252053
:1008B00000F047F80220FFF778FD41E03948007862
:1008C00001283CD1002037490870374800780528B6
:1008D00006DA15203B4908703BA0FFF7B6FC2FE075
:1008E000354800785B280CD133482F490978405CA3
:1008F0005D2806D113203349087039A0FFF7A5FC05
:100900001EE03CA0FFF7A1FC27480078811E2A4882
:10091000401CFFF71DFD3B4908703BA0FFF795FC0D
:100920002548407841280AD13CA0FFF78EFC224997
:10093000C978214A927841EA0220FFF793FD00BF6F
:10094000BCE700F01F02012191404209920002F130
:10095000E022C2F8001170470000002004000020CF
:10096000001002400004004000080140000C01405B
:10097000003033002C2C014054696D6520697320D0
:10098000676F6E652E2044617461207265636569CE
:1009900076652069732000001D0000207A65726F63
:1009A000000000001E0000201F0000202020212049
:1009B0002020000004380140240000206869212024
:1009C0000000000020000020434F4D4D414E445F89
:1009D0004C4553535F355F4348415220200000008F
:1009E00053544152545F53544F505F554E434F52EE
:1009F00052202000474F20544F204352433820209C
:100A0000000000002100002052455455524E20465F
:100A1000524F4D2043524338202000004D4F565F27
:100A200053544550535F585F504C5553202000009D
:100A3000704770477047754600F02CF8AE460500C9
:100A40006946534620F00700854618B020B5FFF7E9
:100A5000A7FBBDE820404FF000064FF000074FF025
:100A600000084FF0000B21F00701AC46ACE8C009CC
:100A7000ACE8C009ACE8C009ACE8C0098D467047D5
:100A800010B50446AFF300802046BDE81040FFF7E4
:100A900074BB000000487047440000200149182042
:100AA000ABBEFEE726000200704700002DE9C04102
:100AB00030B4DFF8A0C23CEA111418BF3CEA1314AA
:100AC00000F0EC8081EA03051CEA111444EAD574B5
:100AD00018BF1CEA131500F0C780A4EB05044FF003
:100AE000004545EAC12145EAC32341EA505143EAA2
:100AF000525304F17F74994204F500344FEAC02048
:100B00004FEAC22208BF904200F09C804FEA136572
:100B10000FF24016765D4FEA134506FB05F7C7F165
:100B2000807706FB07F74FEAD737A7FB03687642C3
:100B3000C8F58038A7FB06CE38BFA8F1010807FB2F
:100B400008E64FF0000EA6FB028CE6FB03CEDCF1BC
:100B5000000CCEF1004E38BFAEF1010EA6FB0C58D2
:100B60004FF000074FF00005E6FB0E87A1FB08C61B
:100B7000A0FB07CE16EB0E0645F10005E1FB07656D
:100B800015F1E04E7EBFA4F580345FEA46066D4164
:100B900016F1800745F100054FEA17274FEA066670
:100BA00047EA0567A6F1DE46B6F1805F4FEA1525F4
:100BB0001FD9384624F0010C05EBC471BCF1FE6F5F
:100BC00001EB0C1102D8F0BCBDE8008124425CBFEF
:100BD00001F5801E9EEAC47F02D4F0BCBDE800810E
:100BE000244238D4F0BCA1F1C041BDE8004100F07E
:100BF00032B94FEAD22242EA43524FEAD323A7FB4B
:100C000002864FEAD02040EA415007FB03661EEA05
:100C10000E0F4FEAD12105FB026658BFA6EB005626
:100C2000B6EB00564FEA520E4EEAC37E18EB0E0E9C
:100C300056EB530EBDD518EB02085E417F1C55F1F3
:100C40000005B6E74FF480154FF000074FF000069F
:100C50004FF00008ADE7F0BC4FF0000001F1C041DB
:100C600001F00041BDE8008111EA0C1F0CEA1315E8
:100C700000D00CE013EA0C1F00F025804FF00000BC
:100C8000F0BC81EA030101F00041BDE80081F0BC45
:100C9000BDE8004181EA030100F0DDB8F0BCBDE829
:100CA000004170B500F089F8097EFC3E00F007B8FD
:100CB00081EA03014FF0000001F00041704781EA32
:100CC000030100F0C8B8F0BCBDE800414FF00000DF
:100CD00021497047FFFDFBF9F7F5F4F2F0EEEDEB7B
:100CE000E9E8E6E4E3E1E0DEDDDBDAD8D7D5D4D32A
:100CF000D1D0CFCDCCCBCAC8C7C6C5C4C2C1C0BF76
:100D0000BEBDBCBBBAB9B8B7B6B5B4B3B2B1B0AF7B
:100D1000AEADACABAAA9A8A8A7A6A5A4A3A3A2A15F
:100D2000A09F9F9E9D9C9C9B9A999998979796951A
:100D300095949393929191908F8F8E8E8D8C8C8BB6
:100D40008B8A89898888878786858584848383823E
:100D5000828181800000FF070000F87F4FEA410395
:100D60004FEA5353A3F58063D3F11E03C8BFD3F1F9
:100D7000210C0CDD4FF0004242EAC12242EA5052FF
:100D800032FA03FC8CEAE17CACEBE1707047102B8B
:100D9000C4BF0020704703F5787CBCF1FF3F04D04E
:100DA0006FF0004282EA2100704770B500F005F84C
:100DB0004992248000207047F2E70EF1020E2EF0D7
:100DC000030E5EF8046B364205D4012A43EB03059B
:100DD00015F5001F12D8012841EB010C1CF5001F6E
:100DE0000CD80ED14FEAD17C15F5001F0CEB4C0C42
:100DF0000CF1020C08BF4CEBD37C04E04FF0080C64
:100E000001E04FEAD37C0CEB4C0526FA05F606F020
:100E10000706B6F1040C06D20EEB860CBDE8704056
:100E20004CF0010C6047DFE80CF0090B02024FF0B8
:100E300000414FF00000A1F5002170BD1946104699
:100E4000012851EB010418BFD4F5001484BF002021
:100E500001F0004170BD0808A0F500114FEA310112
:100E60007047000043004FEAD30C4FEA3C0C43406C
:100E70001FBF40070CF1605113F0FE4F70471CF08C
:100E8000006F03D100200CF0004170470CF00043CC
:100E900043EA507010B540EACC0000F0E5F800BF1E
:100EA000000000924FEA0001FFF7D5BF4FF000416C
:100EB0004FF00000A1F500217047000090EA010FFB
:100EC00048BF81F0004100F15281421A3CBF801AB4
:100ED00089184FEAD0524FF07F4C1CEA410FA2EB29
:100EE000D15318BF9CEA026F00F03B804FF0004CDA
:100EF0004CEA00204CEA012121FA03FC10EB0C0C17
:100F00001ED202F1FF325FEA1C2040EBC25038BF14
:100F100070471CF07F0F4FEA400C18BFBCF17F4FA9
:100F200038BF7047C3F12003994008BF20F001008B
:100F3000BCF17F4F38BF7047A0F1C04000F0DAB875
:100F40004FEA3C00000A40EBC25028BF1CF0FF0FE4
:100F50004FEA400CE6D018BFBCF17F4F38BF704756
:100F6000EAE79CEA026F05D010EA5C0F08BF00F0C8
:100F70000040704710B500F077F800BF64FBBE3E3C
:100F8000401058BFC0F14040491058BFC1F1404126
:100F90008142EFF30080704750EA010C00F11380AA
:100FA0001CF5000F58BFBCF5000F01D488427047F4
:100FB00007D710F5000F58BF11F5000F15D4884260
:100FC0007047894270471CF5000F04D5BCF5000F2F
:100FD000F7D5814270474FF0807C1CEB400F38BF43
:100FE0001CEB410F01D28142704710B500F03CF874
:100FF000922449004FF000504FF08051FFF7C0BFDE
:1010000050EA010C00F113801CF5000F58BFBCF52D
:10101000000F01D48842704707D710F5000F58BF62
:1010200011F5000F15D488427047894270471CF5AE
:10103000000F04D5BCF5000FF7D5814270474FF083
:10104000807C1CEB400F38BF1CEB410F01D281426A
:10105000704710B500F008F8922449004FF0005096
:101060004FF08051FFF78CBF0EF1020E2EF0030EF1
:101070005EF8044B244204D44FEA4102B2F17F4FA0
:1010800011D84FEA4003B3F17F4F0CD80ED14FEA8D
:10109000D07CB2F17F4F0CEB4C0C0CF1020C08BF72
:1010A0004CEBD17C04E04FF0080C01E04FEAD17C1E
:1010B0000CEB4C0324FA03F404F00704B4F1040C21
:1010C00006D20EEB840CBDE810404CF0010C6047DA
:1010D000DFE80CF0070802024FF00040A0F58000A6
:1010E00010BD0846420018BFD2F1807288BF00F0E0
:1010F000004010BDFF2141EAD050C005704751EAC1
:10110000000C00F113801CF5000F58BFBCF5000F58
:1011100001D48142704707D711F5000F58BF10F571
:10112000000F15D481427047894270471CF5000FAB
:1011300004D5BCF5000FF7D5884270474FF0807C8E
:101140001CEB410F38BF1CEB400F01D288427047A7
:1011500080EA010081EA000180EA0100FFF779BF1F
:1011600090EA010F48BF81F000413FF5AEAE421A50
:1011700004D882F00042A0EB020011444FEAD052A2
:101180004FF07F4C1CEA410FA2EBD15318BF9CEAF1
:10119000026F4AD04FF0004C4CEA00204CEA01218B
:1011A00021FA03FCB0EB0C0C0FD412F0FE0F36D07A
:1011B0005FEA4C001DD5001240EBC25038BF7047AB
:1011C0001CF03F0F18BF70470BE0A2F101025FEA6D
:1011D0001C2040EBC25038BF70471CF07F0F18BF77
:1011E0007047C3F12003994014BF401E20F0010056
:1011F000704780084FEA122308BF7047B0FA80FC9E
:10120000A2EB0C02CCF1280C60FA0CF093EA122F3E
:1012100004BF00EBC25070474FEAC3707047130A17
:101220005FEADC1008BF7047F6E79CEA026F04D063
:1012300010EA5C0F08BF0020704710B5FFF714FFDD
:1012400040DFF63E81F00040704700006C1200085D
:10125000000000202400000028010008901200086F
:101260002400002084020000440100080000000067
:10127000000000000000000014C814C800000000B6
:10128000000000000000000000000000000032002C
:040000050800018965
:00000001FF
