:020000040800F2
:1000000098020020890100088D0100088F01000876
:10001000910100089301000895010008000000000C
:100020000000000000000000000000009701000830
:1000300099010008000000009B0100089D010008D4
:100040009F0100089F0100089F0100089F01000810
:100050009F0100089F0100089F0100089F01000800
:100060009F0100089F0100089F0100089F010008F0
:100070009F0100089F0100089F0100089F010008E0
:100080009F0100089F0100089F0100089F010008D0
:100090009F0100089F0100089F0100089F010008C0
:1000A0009F0100089F0100089F0100089F010008B0
:1000B000E10500089F0100089F0100089F0100085A
:1000C0009F0100089F0100089F0100089F01000890
:1000D0009F010008490600089F0100089F010008D1
:1000E0009F0100089F0100089F01000800F002F82E
:1000F00000F03AF80AA090E8000C82448344AAF188
:100100000107DA4501D100F02FF8AFF2090EBAE885
:100110000F0013F0010F18BFFB1A43F0010318473B
:10012000BC100000DC100000103A24BF78C878C171
:10013000FAD8520724BF30C830C144BF04680C60ED
:10014000704700000023002400250026103A28BF35
:1001500078C1FBD8520728BF30C148BF0B60704739
:100160001FB51FBD10B510BD00F02DFC1146FFF7E7
:10017000F7FF00F0BCFA00F04BFC03B4FFF7F2FF0E
:1001800003BC00F053FC000008480047FEE7FEE710
:10019000FEE7FEE7FEE7FEE7FEE7FEE7FEE7FEE737
:1001A00003480449024A044B70470000ED00000870
:1001B00098000020980200209800002000BFF84915
:1001C000098801F040014029F9D1C1B2F44A121D59
:1001D00011807047F348806940F00400F14988615C
:1001E0000846806940F480408861EF48006840F02C
:1001F0003000ED4908600846006820F0C000086043
:100200000846006840F0800008600846006820F456
:10021000407008600846006820F4406008600846A6
:10022000006840F48060086040F24130DC490831E9
:100230000880081D008840F00C00091D0880084651
:10024000008840F4005008807047002100BF0CE097
:1002500000BFD34A128802F04002402AF9D1425C22
:10026000CF4B1B1D1A804A1CD1B2425C002AEFD131
:1002700070470EB50146002000BF04E000220DF8D3
:100280000020421CD0B20A28F8DB00200CE00A2231
:1002900091FBF2F302FB1312D2B20DF80020421CC4
:1002A000D0B20A2291FBF2F10029F0DC0FE000BF8E
:1002B000BB4A128802F04002402AF9D1421E1DF8C2
:1002C00002203032B64B1B1D1A80421ED0B20028CD
:1002D000EDD10EBDB348C06940F00100B149C8611D
:1002E0008804008840F084008904088008468089DA
:1002F00040F0010088810020888541F63F70088524
:10030000002088840846808A40F040008882704738
:1003100000204FF0804188840846008840F00100AA
:10032000088070474FF08040008820F001004FF0B7
:1003300080410880704700B50246FFF7F3FF0020B8
:100340004FF08041888408468285FFF7E1FF00BDB9
:1003500030B502460B46002010E012F8014B604019
:10036000002109E000F080041CB1312484EA40043B
:1003700000E04400E0B2491C0829F3D31C1EA3F19D
:100380000103EAD130BD8748806940F00800854903
:1003900088618648006820F0C000844908600846EB
:1003A000006840F0100008607047014621B94FF026
:1003B00000707E4A0C321060022903D108027B4A89
:1003C0000C321060002070470146642903DD6E295D
:1003D00001D00E207047642901DC754801700020AF
:1003E000F8E72DE9F34F8BB00E46724801680B9881
:1003F00000F07EFE0A9070480168304600F078FEFA
:1004000009900A9800F0F6FC04466C4A6C4B00F028
:1004100015FB074600F06AFC0890099800F0EAFC1A
:100420000446664A664B00F009FB074600F05EFC96
:10043000079000210B9800F077FD08D1002130468D
:1004400000F072FD03D000200DB0BDE8F08F002158
:10045000304600F069FD06D100210B9800F064FDE4
:1004600001D00020F0E70021304600F05DFD06D10C
:1004700000210B9800F058FD01D10020E4E731463F
:100480000B9800F051FD01D10020DDE731460B98BB
:1004900000F04AFD66D00B9800F0ACFC474A484B90
:1004A000CDE9000100F0CAFACDE9020100F01EFC1E
:1004B0000746304600F09EFC404A414BCDE9000122
:1004C00000F0BCFACDE9020100F010FC8046381EB5
:1004D00001DB014600E04142894600210B9800F013
:1004E000D6FD01D2012001E04FF0FF300690B8F1B7
:1004F000000001DB014600E041420D46314600208C
:1005000000F046FD01D2012001E04FF0FF300590E0
:10051000A94501DD484600E0684244104FF0000A5A
:10052000D3460020049000BFBB4503D1049840454A
:1005300000D10FE0A246C9F10000824502DD641B34
:1005400006988344AA45EFDA4C44DDE904010844E7
:100550000490E9E700BF17490B9808601648066049
:10056000002071E700BF6FE770470E48C06940F098
:1005700001000C49C8618804008840F084008904A7
:1005800008800846808940F0010088810020888525
:1005900088840846808A40F04000888270470000C6
:1005A000003801400010024004080140040C0140E2
:1005B000120000200000002004000020B81E85EB7F
:1005C00051B8BE3F40EAC1024FF080439A84704761
:1005D00070470146002901DB084670474842FCE7A6
:1005E00000B54FF08040008A20F001004FF08041BC
:1005F00008820846008A20F040000882FFF792FE39
:10060000A9A0FFF722FEB048007850B9AFA0FFF7CD
:100610001CFE0020AF490870AB480078AE49087056
:100620000BE0A94800783030FFF7C8FD0120A94948
:100630000870A5480078A8490870A8A0FFF705FE33
:100640000020A149087000BD00B50023FFF76AFE35
:10065000A4480088C3B2A4489B49097843549A48E7
:100660000078401C984908700A20FFF764FE00BD1E
:100670009E48006840F480309C49086000BF9B4859
:10068000006800F400300028F9D09848406840F035
:100690000100964948600846806944F20401084315
:1006A000924988619248006820F44040904908606F
:1006B0000846006840F4805008608A480830008886
:1006C00040F020008749083108808848806940F060
:1006D0000400864988618648006820F440408449C7
:1006E00008600846006840F48050086070470024A5
:1006F000FFF7BEFFFFF76EFDFFF7ECFDFFF743FED0
:100700007CA0FFF7A2FD1C2000F0C2F8252000F01D
:10071000BFF80A20FFF70FFE0220FFF746FEB6E003
:1007200076A0FFF792FD6B48007801287ED100206B
:100730006849087068480078052806DA052070497D
:10074000087070A0FFF781FDA1E0674800785B2882
:100750000CD1654860490978405C5D2806D10220CB
:10076000674908706DA0FFF770FD90E070A0FFF77B
:100770006CFD59480078811E5B48401CFFF7E8FD7E
:100780006F4908706FA0FFF760FD6D48007830B1C9
:1007900003205B49087070A0FFF757FD77E05248CF
:1007A00040784D282CD15048807853280AD1002019
:1007B000FFF7FBFD18B96CA0FFF747FD02E06FA043
:1007C000FFF743FD484880784C280AD10120FFF705
:1007D000ECFD18B96CA0FFF738FD02E067A0FFF749
:1007E00034FD4148807852280AD10220FFF7DDFD10
:1007F00018B96BA0FFF729FD02E060A0FFF725FD07
:1008000039484078532800D100BF374840785A28EB
:1008100000D100BF34484078582800D100BF32488A
:100820004078592800D100BF2F4800E019E04078F7
:10083000502800D100BF2C484078412811D12A48C7
:1008400080784C2804D12848C0784E2800D000BFBA
:1008500025488078462804D12348C0784E2800D007
:1008600000BF0820224910310860002400E0641C09
:1008700051488442FBDB4FF400201D4910310860D1
:10088000002400E0641C4D488442FBDB00BF47E7C6
:1008900000F01F02012191404209920002F1E02282
:1008A000C2F800117047000054696D65206973201B
:1008B000676F6E652E20446174612072656365699F
:1008C00076652069732000000D0000207A65726F44
:1008D000000000000E0000200F000020202021203A
:1008E00020200000043801401400002000100240C5
:1008F000000801406869212000000000312000004C
:1009000010000020434F4D4D414E445F4C45535322
:100910005F355F434841522020000000535441524C
:10092000545F53544F505F554E434F525220200056
:10093000474F20544F2043524338202000000000EE
:100940001100002052455455524E2046524F4D2022
:1009500043524338202000004352435F554E434FDB
:10096000525220200000000053485F4D4F44455F25
:100970004F4646204F4B2020000000004552524F6A
:10098000522120200000000053485F4D4F44455F36
:100990004F4E5F4C454654204F4B20200000000036
:1009A00053485F4D4F44455F4F4E5F52494748544F
:1009B000204F4B202000000080841E00A0860100F4
:1009C000704770477047754600F02CF8AE4605003A
:1009D0006946534620F00700854618B020B5FFF75A
:1009E000DFFBBDE820404FF000064FF000074FF05E
:1009F00000084FF0000B21F00701AC46ACE8C0093D
:100A0000ACE8C009ACE8C009ACE8C0098D46704745
:100A100010B50446AFF300802046BDE81040FFF754
:100A2000ACBB00000048704734000020014918208A
:100A3000ABBEFEE726000200704700002DE9C04172
:100A400030B4DFF8A0C23CEA111418BF3CEA13141A
:100A500000F0EC8081EA03051CEA111444EAD57425
:100A600018BF1CEA131500F0C780A4EB05044FF073
:100A7000004545EAC12145EAC32341EA505143EA12
:100A8000525304F17F74994204F500344FEAC020B8
:100A90004FEAC22208BF904200F09C804FEA1365E3
:100AA0000FF24016765D4FEA134506FB05F7C7F1D6
:100AB000807706FB07F74FEAD737A7FB0368764234
:100AC000C8F58038A7FB06CE38BFA8F1010807FBA0
:100AD00008E64FF0000EA6FB028CE6FB03CEDCF12D
:100AE000000CCEF1004E38BFAEF1010EA6FB0C5843
:100AF0004FF000074FF00005E6FB0E87A1FB08C68C
:100B0000A0FB07CE16EB0E0645F10005E1FB0765DD
:100B100015F1E04E7EBFA4F580345FEA46066D41D4
:100B200016F1800745F100054FEA17274FEA0666E0
:100B300047EA0567A6F1DE46B6F1805F4FEA152564
:100B40001FD9384624F0010C05EBC471BCF1FE6FCF
:100B500001EB0C1102D8F0BCBDE8008124425CBF5F
:100B600001F5801E9EEAC47F02D4F0BCBDE800817E
:100B7000244238D4F0BCA1F1C041BDE8004100F0EE
:100B800032B94FEAD22242EA43524FEAD323A7FBBB
:100B900002864FEAD02040EA415007FB03661EEA76
:100BA0000E0F4FEAD12105FB026658BFA6EB005697
:100BB000B6EB00564FEA520E4EEAC37E18EB0E0E0D
:100BC00056EB530EBDD518EB02085E417F1C55F164
:100BD0000005B6E74FF480154FF000074FF0000610
:100BE0004FF00008ADE7F0BC4FF0000001F1C0414C
:100BF00001F00041BDE8008111EA0C1F0CEA131559
:100C000000D00CE013EA0C1F00F025804FF000002C
:100C1000F0BC81EA030101F00041BDE80081F0BCB5
:100C2000BDE8004181EA030100F0DDB8F0BCBDE899
:100C3000004170B500F089F8097EFC3E00F007B86D
:100C400081EA03014FF0000001F00041704781EAA2
:100C5000030100F0C8B8F0BCBDE800414FF000004F
:100C600021497047FFFDFBF9F7F5F4F2F0EEEDEBEB
:100C7000E9E8E6E4E3E1E0DEDDDBDAD8D7D5D4D39A
:100C8000D1D0CFCDCCCBCAC8C7C6C5C4C2C1C0BFE6
:100C9000BEBDBCBBBAB9B8B7B6B5B4B3B2B1B0AFEC
:100CA000AEADACABAAA9A8A8A7A6A5A4A3A3A2A1D0
:100CB000A09F9F9E9D9C9C9B9A999998979796958B
:100CC00095949393929191908F8F8E8E8D8C8C8B27
:100CD0008B8A8989888887878685858484838382AF
:100CE000828181800000FF070000F87F4FEA410306
:100CF0004FEA5353A3F58063D3F11E03C8BFD3F16A
:100D0000210C0CDD4FF0004242EAC12242EA50526F
:100D100032FA03FC8CEAE17CACEBE1707047102BFB
:100D2000C4BF0020704703F5787CBCF1FF3F04D0BE
:100D30006FF0004282EA2100704770B500F005F8BC
:100D40004992248000207047F2E70EF1020E2EF047
:100D5000030E5EF8046B364205D4012A43EB03050B
:100D600015F5001F12D8012841EB010C1CF5001FDE
:100D70000CD80ED14FEAD17C15F5001F0CEB4C0CB2
:100D80000CF1020C08BF4CEBD37C04E04FF0080CD4
:100D900001E04FEAD37C0CEB4C0526FA05F606F091
:100DA0000706B6F1040C06D20EEB860CBDE87040C7
:100DB0004CF0010C6047DFE80CF0090B02024FF029
:100DC00000414FF00000A1F5002170BD194610460A
:100DD000012851EB010418BFD4F5001484BF002092
:100DE00001F0004170BD0808A0F500114FEA310183
:100DF0007047000043004FEAD30C4FEA3C0C4340DD
:100E00001FBF40070CF1605113F0FE4F70471CF0FC
:100E1000006F03D100200CF0004170470CF000433C
:100E200043EA507010B540EACC0000F0E5F800BF8E
:100E3000000000924FEA0001FFF7D5BF4FF00041DC
:100E40004FF00000A1F500217047000090EA010F6B
:100E500048BF81F0004100F15281421A3CBF801A24
:100E600089184FEAD0524FF07F4C1CEA410FA2EB99
:100E7000D15318BF9CEA026F00F03B804FF0004C4A
:100E80004CEA00204CEA012121FA03FC10EB0C0C87
:100E90001ED202F1FF325FEA1C2040EBC25038BF85
:100EA00070471CF07F0F4FEA400C18BFBCF17F4F1A
:100EB00038BF7047C3F12003994008BF20F00100FC
:100EC000BCF17F4F38BF7047A0F1C04000F0DAB8E6
:100ED0004FEA3C00000A40EBC25028BF1CF0FF0F55
:100EE0004FEA400CE6D018BFBCF17F4F38BF7047C7
:100EF000EAE79CEA026F05D010EA5C0F08BF00F039
:100F00000040704710B500F077F800BF64FBBE3EAC
:100F1000401058BFC0F14040491058BFC1F1404196
:100F20008142EFF30080704750EA010C00F113801A
:100F30001CF5000F58BFBCF5000F01D48842704764
:100F400007D710F5000F58BF11F5000F15D48842D0
:100F50007047894270471CF5000F04D5BCF5000F9F
:100F6000F7D5814270474FF0807C1CEB400F38BFB3
:100F70001CEB410F01D28142704710B500F03CF8E4
:100F8000922449004FF000504FF08051FFF7C0BF4E
:100F900050EA010C00F113801CF5000F58BFBCF59E
:100FA000000F01D48842704707D710F5000F58BFD3
:100FB00011F5000F15D488427047894270471CF51F
:100FC000000F04D5BCF5000FF7D5814270474FF0F4
:100FD000807C1CEB400F38BF1CEB410F01D28142DB
:100FE000704710B500F008F8922449004FF0005007
:100FF0004FF08051FFF78CBF0EF1020E2EF0030E62
:101000005EF8044B244204D44FEA4102B2F17F4F10
:1010100011D84FEA4003B3F17F4F0CD80ED14FEAFD
:10102000D07CB2F17F4F0CEB4C0C0CF1020C08BFE2
:101030004CEBD17C04E04FF0080C01E04FEAD17C8E
:101040000CEB4C0324FA03F404F00704B4F1040C91
:1010500006D20EEB840CBDE810404CF0010C60474A
:10106000DFE80CF0070802024FF00040A0F5800016
:1010700010BD0846420018BFD2F1807288BF00F050
:10108000004010BDFF2141EAD050C005704751EA31
:10109000000C00F113801CF5000F58BFBCF5000FC9
:1010A00001D48142704707D711F5000F58BF10F5E2
:1010B000000F15D481427047894270471CF5000F1C
:1010C00004D5BCF5000FF7D5884270474FF0807CFF
:1010D0001CEB410F38BF1CEB400F01D28842704718
:1010E00080EA010081EA000180EA0100FFF779BF90
:1010F00090EA010F48BF81F000413FF5AEAE421AC1
:1011000004D882F00042A0EB020011444FEAD05212
:101110004FF07F4C1CEA410FA2EBD15318BF9CEA61
:10112000026F4AD04FF0004C4CEA00204CEA0121FB
:1011300021FA03FCB0EB0C0C0FD412F0FE0F36D0EA
:101140005FEA4C001DD5001240EBC25038BF70471B
:101150001CF03F0F18BF70470BE0A2F101025FEADD
:101160001C2040EBC25038BF70471CF07F0F18BFE7
:101170007047C3F12003994014BF401E20F00100C6
:10118000704780084FEA122308BF7047B0FA80FC0E
:10119000A2EB0C02CCF1280C60FA0CF093EA122FAF
:1011A00004BF00EBC25070474FEAC3707047130A88
:1011B0005FEADC1008BF7047F6E79CEA026F04D0D4
:1011C00010EA5C0F08BF0020704710B5FFF714FF4E
:1011D00040DFF63E81F0004070470000FC1100083F
:1011E0000000002014000000280100081012000870
:1011F00014000020840200004401000800000000E8
:1012000000000000000000000000000000003200AC
:040000050800018965
:00000001FF
