:020000040800F2
:1000000098020020890100088D0100088F01000876
:10001000910100089301000895010008000000000C
:100020000000000000000000000000009701000830
:1000300099010008000000009B0100089D010008D4
:100040009F0100089F0100089F0100089F01000810
:100050009F0100089F0100089F0100089F01000800
:100060009F0100089F0100089F0100089F010008F0
:100070009F0100089F0100089F0100089F010008E0
:100080009F0100089F0100089F0100089F010008D0
:100090009F0100089F0100089F0100089F010008C0
:1000A0009F0100089F0100089F0100089F010008B0
:1000B0006F0400089F0100089F0100089F010008CD
:1000C0009F0100089F0100089F0100089F01000890
:1000D0009F010008D70400089F0100089F01000845
:1000E0009F0100089F0100089F01000800F002F82E
:1000F00000F03AF80AA090E8000C82448344AAF188
:100100000107DA4501D100F02FF8AFF2090EBAE885
:100110000F0013F0010F18BFFB1A43F0010318473B
:10012000180A0000380A0000103A24BF78C878C1C5
:10013000FAD8520724BF30C830C144BF04680C60ED
:10014000704700000023002400250026103A28BF35
:1001500078C1FBD8520728BF30C148BF0B60704739
:100160001FB51FBD10B510BD00F087FB1146FFF78E
:10017000F7FF00F008FA00F0A5FB03B4FFF7F2FF69
:1001800003BC00F0ADFB000008480047FEE7FEE7B7
:10019000FEE7FEE7FEE7FEE7FEE7FEE7FEE7FEE737
:1001A00003480449024A044B70470000ED00000870
:1001B00098000020980200209800002000BFFE490F
:1001C000098801F040014029F9D1C1B2FA4A121D53
:1001D00011807047F948806940F00400F749886150
:1001E0000846806940F480408861F548006840F026
:1001F0003000F34908600846006820F0C00008603D
:100200000846006840F0800008600846006820F456
:10021000407008600846006820F4406008600846A6
:10022000006840F48060086040F24130E2490831E3
:100230000880081D008840F00C00091D0880084651
:10024000008840F4005008807047002100BF0CE097
:1002500000BFD94A128802F04002402AF9D1425C1C
:10026000D54B1B1D1A804A1CD1B2425C002AEFD12B
:1002700070470EB50146002000BF04E000220DF8D3
:100280000020421CD0B20A28F8DB00200CE00A2231
:1002900091FBF2F302FB1312D2B20DF80020421CC4
:1002A000D0B20A2291FBF2F10029F0DC0FE000BF8E
:1002B000C14A128802F04002402AF9D1421E1DF8BC
:1002C00002203032BC4B1B1D1A80421ED0B20028C7
:1002D000EDD10EBDB948C06940F00100B749C86111
:1002E0008804008840F084008904088008468089DA
:1002F00040F0010088810020888541F63F70088524
:10030000002088840846808A40F040008882704738
:1003100000204FF0804188840846008840F00100AA
:10032000088070474FF08040008820F001004FF0B7
:1003300080410880704700B50246FFF7F3FF0020B8
:100340004FF08041888408468285FFF7E1FF00BDB9
:1003500030B502460B46002010E012F8014B604019
:10036000002109E000F080041CB1312484EA40043B
:1003700000E04400E0B2491C0829F3D31C1EA3F19D
:100380000103EAD130BD8D48806940F008008B49F7
:1003900088618C48006820F0C0008A4908600846DF
:1003A000006840F0100008607047014621B94FF026
:1003B0000070844A0C321060022903D10802814A7D
:1003C0000C321060002070470146642903DD6E295D
:1003D00001D00E207047642901DC7B4801700020A9
:1003E000F8E72DE9D04F80460E4678480168404630
:1003F00000F02CFB834676480168304600F026FB6F
:100400008246AC420AD0AC4203D9681EB4FBF0F776
:1004100002E0601EB5FBF0F74FEA97096B48C0F8A1
:1004200000806B480660BDE8D08F70476348C069A4
:1004300040F001006149C8618804008840F08400F0
:10044000890408800846808940F0010088810020E6
:10045000888588840846808A40F0400088827047FA
:1004600040EAC1024FF080439A847047704700B55C
:100470004FF08040008A20F001004FF08041088258
:100480000846008A20F040000882FFF74BFF51A089
:10049000FFF7DBFE5748007850B957A0FFF7D5FEAD
:1004A00000205749087053480078564908700BE0FF
:1004B000504800783030FFF781FE01205049087025
:1004C0004C4800784F4908704FA0FFF7BEFE00204F
:1004D0004849087000BD00B50023FFF723FF3648E8
:1004E000001D0088C3B24A48424909784354414834
:1004F0000078401C3F4908700A20FFF71CFF00BD30
:100500002E48006840F480302C49086000BF2B481A
:10051000006800F400300028F9D02848406840F016
:100520000100264948600846806944F204010843F6
:10053000224988612248001F006820F44040204979
:10054000091F08600846006840F4805008601A4897
:100550000C30008840F0200017490C310880174803
:10056000806940F00400154988611548001F006843
:1005700020F440401249091F08600846006840F412
:100580008050086070470024FFF7BAFFFFF722FE93
:10059000FFF7A0FEFFF7F7FE1EA0FFF756FE1C2098
:1005A00000F0F2F8252000F0EFF80A20FFF7C3FE74
:1005B0000220FFF7FAFEE6E000380140001002409A
:1005C00004080140040C014012000020000000203B
:1005D0000400002054696D6520697320676F6E65A3
:1005E0002E204461746120726563656976652069B7
:1005F000732000000D0000207A65726F000000007B
:100600000E0000200F0000202020212020200000CC
:1006100014000020686921200000000060A0FFF79E
:1006200014FE6048007801287ED100205D490870E2
:100630005D480078052806DA05205C4908705CA052
:10064000FFF703FE9FE0604800785B280CD15E480E
:1006500055490978405C5D2806D10220534908704D
:100660005AA0FFF7F2FD8EE05DA0FFF7EEFD4E48C9
:100670000078811E5448401CFFF76AFE5C490870F0
:100680005CA0FFF7E2FD5A48007830B103204749EB
:1006900008705DA0FFF7D9FD75E04B4840784D2804
:1006A0002CD14948807853280AD10020FFF77DFEDD
:1006B00018B959A0FFF7C9FD02E05CA0FFF7C5FD1E
:1006C000414880784C280AD10120FFF76EFE18B906
:1006D00059A0FFF7BAFD02E054A0FFF7B6FD3A4873
:1006E000807852280AD10220FFF75FFE18B958A07F
:1006F000FFF7ABFD02E04DA0FFF7A7FD32484078C1
:10070000532800D100BF304840785A2800D100BF9C
:100710002D484078582800D100BF2B4840785928F0
:1007200000D100BF284800E019E04078502800D1EF
:1007300000BF25484078412811D1234880784C28B3
:1007400004D12148C0784E2800D000BF1E488078D0
:10075000462804D11C48C0784E2800D000BF08208D
:1007600041490860002400E0641C40488442FBDBEF
:100770004FF400203C490860002400E0641C3C4821
:100780008442FBDB00BF49E700F01F0201219140DA
:100790004209920002F1E022C2F800117047000005
:1007A000312000000E0000200F000020100000206B
:1007B000434F4D4D414E445F4C4553535F355F436E
:1007C00048415220200000001400002053544152A0
:1007D000545F53544F505F554E434F5252202000A8
:1007E000474F20544F204352433820200000000040
:1007F0001100002052455455524E2046524F4D2074
:1008000043524338202000004352435F554E434F2C
:10081000525220200000000053485F4D4F44455F76
:100820004F4646204F4B2020000000004552524FBB
:10083000522120200000000053485F4D4F44455F87
:100840004F4E5F4C454654204F4B20200000000087
:1008500053485F4D4F44455F4F4E5F5249474854A0
:10086000204F4B20200000001008014080841E0013
:10087000A0860100704770477047754600F02CF85D
:10088000AE4605006946534620F00700854618B07D
:1008900020B5FFF785FCBDE820404FF000064FF083
:1008A00000074FF000084FF0000B21F00701AC46A5
:1008B000ACE8C009ACE8C009ACE8C009ACE8C009C4
:1008C0008D46704710B50446AFF300802046BDE862
:1008D0001040FFF752BC0000004870473400002071
:1008E00001491820ABBEFEE7260002007047000059
:1008F00090EA010F48BF81F0004100F1AE80421A3A
:100900003CBF801A89184FEAD0524FF07F4C1CEA46
:10091000410FA2EBD15318BF9CEA026F00F03B805D
:100920004FF0004C4CEA00204CEA012121FA03FC74
:1009300010EB0C0C1ED202F1FF325FEA1C2040EBE0
:10094000C25038BF70471CF07F0F4FEA400C18BFF1
:10095000BCF17F4F38BF7047C3F12003994008BFF7
:1009600020F00100BCF17F4F38BF7047A0F1C040BC
:1009700000F066B84FEA3C00000A40EBC25028BFC6
:100980001CF0FF0F4FEA400CE6D018BFBCF17F4FC0
:1009900038BF7047EAE79CEA026F05D010EA5C0FA7
:1009A00008BF00F00040704710B500F003F800BF2A
:1009B00064FBBE3E0EF1020E2EF0030E5EF8044BF9
:1009C000244204D44FEA4102B2F17F4F11D84FEADA
:1009D0004003B3F17F4F0CD80ED14FEAD07CB2F177
:1009E0007F4F0CEB4C0C0CF1020C08BF4CEBD17C94
:1009F00004E04FF0080C01E04FEAD17C0CEB4C0313
:100A000024FA03F404F00704B4F1040C06D20EEB4C
:100A1000840CBDE810404CF0010C6047DFE80CF09E
:100A2000070802024FF00040A0F5800010BD084604
:100A3000420018BFD2F1807288BF00F0004010BDA4
:100A4000FF2141EAD050C0057047000090EA010F35
:100A500048BF81F000413FF552AF421A04D882F0FE
:100A60000042A0EB020011444FEAD0524FF07F4CFD
:100A70001CEA410FA2EBD15318BF9CEA026F4AD087
:100A80004FF0004C4CEA00204CEA012121FA03FC13
:100A9000B0EB0C0C0FD412F0FE0F36D05FEA4C0016
:100AA0001DD5001240EBC25038BF70471CF03F0FFD
:100AB00018BF70470BE0A2F101025FEA1C2040EB77
:100AC000C25038BF70471CF07F0F18BF7047C3F18A
:100AD0002003994014BF401E20F001007047800899
:100AE0004FEA122308BF7047B0FA80FCA2EB0C0259
:100AF000CCF1280C60FA0CF093EA122F04BF00EB43
:100B0000C25070474FEAC3707047130A5FEADC10A7
:100B100008BF7047F6E79CEA026F04D010EA5C0F4A
:100B200008BF0020704710B5FFF744FF40DFF63ED6
:100B300081F0004070470000580B000800000020C2
:100B400014000000280100086C0B000814000020AD
:100B500084020000440100080000000000000000C2
:0C0B600000000000000000000000320057
:040000050800018965
:00000001FF
