:020000040800F2
:10000000A8020020890100088D0100088F01000866
:10001000910100089301000895010008000000000C
:100020000000000000000000000000009701000830
:1000300099010008000000009B0100089D010008D4
:100040009F0100089F0100089F0100089F01000810
:100050009F0100089F0100089F0100089F01000800
:100060009F0100089F0100089F0100089F010008F0
:100070009F0100089F0100089F0100089F010008E0
:100080009F0100089F0100089F0100089F010008D0
:100090009F0100089F0100089F0100089F010008C0
:1000A0009F0100089F0100089F0100089F010008B0
:1000B000A50700089D0800089F0100089F0100088F
:1000C0009F0100089F0100089F0100089F01000890
:1000D0009F0100080D0800089F0100089F0100080B
:1000E0009F0100089F0100089F01000800F002F82E
:1000F00000F03AF80AA090E8000C82448344AAF188
:100100000107DA4501D100F02FF8AFF2090EBAE885
:100110000F0013F0010F18BFFB1A43F0010318473B
:100120006011000080110000103A24BF78C878C127
:10013000FAD8520724BF30C830C144BF04680C60ED
:10014000704700000023002400250026103A28BF35
:1001500078C1FBD8520728BF30C148BF0B60704739
:100160001FB51FBD10B510BD00F07FFC1146FFF795
:10017000F7FF00F094FB00F09DFC03B4FFF7F2FFE3
:1001800003BC00F0A5FC000008480047FEE7FEE7BE
:10019000FEE7FEE7FEE7FEE7FEE7FEE7FEE7FEE737
:1001A00003480449024A044B70470000ED00000870
:1001B000A8000020A8020020A800002000BFFA49E3
:1001C000098801F040014029F9D1C1B2F64A121D57
:1001D00011807047F548806940F00400F349886158
:1001E0000846806940F480408861F148006840F02A
:1001F0003000EF4908600846006820F0C000086041
:100200000846006840F0800008600846006820F456
:10021000407008600846006820F4406008600846A6
:10022000006840F48060086040F24130DE490831E7
:100230000880081D008840F00C00091D0880084651
:10024000008840F4005008807047002100BF0CE097
:1002500000BFD54A128802F04002402AF9D1425C20
:10026000D14B1B1D1A804A1CD1B2425C002AEFD12F
:1002700000BFCD4A128802F04002402AF9D10D2277
:10028000C94B1B1D1A8070470EB50146002000BFE8
:1002900004E000220DF80020421CD0B20A28F8DB4E
:1002A00000200CE00A2291FBF2F302FB1312D2B2FF
:1002B0000DF80020421CD0B20A2291FBF2F1002975
:1002C000F0DC0FE000BFB84A128802F04002402A7A
:1002D000F9D1421E1DF802203032B34B1B1D1A808B
:1002E000421ED0B20028EDD10EBDB048C06940F02A
:1002F0000100AE49C8618804008840F08400890488
:1003000008800846808940F00100888100208885A7
:1003100041F63F700885002088840846808A40F0B6
:1003200040008882704700204FF080418884084652
:10033000008840F00100088070474FF0804000883E
:1003400020F001004FF080410880704700B5024660
:10035000FFF7F3FF00204FF0804188840846828534
:10036000FFF7E1FF00BD30B502460B46002010E06C
:1003700012F8014B6040002109E000F080041CB13C
:10038000312484EA400400E04400E0B2491C08291A
:10039000F3D31C1EA3F10103EAD130BD8348806969
:1003A00040F00800814988618248006820F0C00060
:1003B000804908600846006840F0100008607047F7
:1003C000014621B94FF000707A4A0C3210600229C0
:1003D00003D10802774A0C321060002070470146B2
:1003E000642903DD6E2901D00E207047642901DCE9
:1003F000714801700020F8E70146002904DD08205B
:100400006B4A0C32106003E00820694A0C3210601D
:10041000002070470246012A0DD1002904DD082082
:10042000634B0C33186006E04FF40020604B0C3334
:10043000186000207047022A0DD1002904DD082031
:100440005B4B0C33186006E04FF40020584B0C3324
:1004500018600020EEE7032A0DD1002904DD0820F2
:10046000534B0C33186006E04FF40020504B0C3314
:1004700018600020DEE71F20DCE710B504462146A7
:100480000120FFF7C7FF601E4FF0804108864B48F0
:100490000460002010BD2DE9F34F8DB08846484818
:1004A00001680D9800F076FE0C90464801684046C1
:1004B00000F070FE0B900C9800F0EEFC0446424AEF
:1004C000424B00F00DFB064600F062FC0A900B98D0
:1004D00000F0E2FC04463C4A3C4B00F001FB0646BF
:1004E00000F056FC09900021404600F06FFD08D155
:1004F00000210D9800F06AFD03D100200FB0BDE887
:10050000F08F00210D9800F061FD09D100214046D7
:1005100000F05CFD04D00998FFF76EFF0020EDE7C6
:100520000021404600F052FD06D100210D9800F058
:100530004DFD01D00020E1E741460D9800F046FD59
:1005400001D10020DAE741460D9800F03FFD78D058
:100550000D9800F0A1FC1C4A1C4BCDE9000100F0F5
:10056000BFFACDE9020100F013FC0546404600F059
:1005700093FC154A154BCDE9000100F0B1FACDE925
:10058000020100F005FC0646002008900790281E96
:1005900001DB014600E04142894600210D9800F050
:1005A000C8FD15D2012015E00038014000100240BE
:1005B00004080140040C014022000020100000202B
:1005C0000000002004000020B81E85EB51B8BE3F9B
:1005D0004FF0FF300690301E01DB014600E0414243
:1005E0000F464146002000F025FD01D2012001E028
:1005F0004FF0FF300590B94501DD484600E07842F4
:100600004410002004908246834600BFAA4502D1D0
:10061000B34500D116E02846FFF72FFF3046FFF71D
:10062000EBFE0494C9F10000049C844202DDE41B4B
:10063000069882440498B842E8DA4C44059883440A
:10064000E4E708E000BFCF490D980860CE48C0F845
:100650000080002052E700BF50E77047CB48C069D8
:1006600040F00200C949C861C948008820F0700004
:10067000C74908800846008820F44070088014208C
:10068000C3492C3108800A20C14934310880072031
:10069000BF49283108800420BD493031088001203D
:1006A000BB49143108800020B94908310880B84896
:1006B000008840F00800B6490880B5481830008826
:1006C0004FF68F710840B2491831088008460088FB
:1006D0004FF6FC710840AE49183108800846008882
:1006E00040F070000880AA48203000884FF6FD7165
:1006F0000840A7492031088001200880A5480068EB
:1007000040F04070A34908600846006840F000606F
:1007100008600846006840F04050086008460068DD
:1007200040F0004008609C48006840F003009A498F
:1007300008600846006840F00800086095480068B6
:1007400096490843934908600846006820F48000F1
:1007500008608F48008840F001008D49088070478C
:1007600040EAC1024FF080439A84704770470146C7
:10077000002901DB084670474842FCE701464A1061
:100780000A2A01DA01207047854801808448083030
:1007900002800020824B083B188000BFF3E701462F
:1007A0000020704700B54FF08040008A20F0010023
:1007B0004FF0804108820846008A20F040000882FD
:1007C000FFF7BBFD77A0FFF740FD7E48007850B9EA
:1007D0007DA0FFF73AFD00207D4908707948007838
:1007E0007C4908700BE0774800783030FFF7E6FC72
:1007F000012077490870734800787649087076A020
:10080000FFF723FD00206F49087000BD00B50023ED
:10081000FFF793FD72480088C3B2724869490978AE
:10082000435468480078401C664908700A20FFF766
:100830008DFD00BD5548006840F480305349086084
:1008400000BF5248006800F400300028F9D04F483B
:10085000406840F001004D4948600846806944F214
:1008600004010843494988615D480830008840F028
:1008700020005B49083108804448806940F004004A
:10088000424988614348006820F00C0041490860F3
:100890000846006840F00100086070477047002477
:1008A000FFF7C8FFFFF796FCFFF71FFDFFF776FD88
:1008B000FFF7D4FE1C2000F05AF81D2000F057F876
:1008C000252000F054F851E047A0FFF7BEFC404857
:1008D0000078012834D100203D4908703D48007857
:1008E000052806DA15204249087042A0FFF7ADFC42
:1008F0003CE03C4800785B280CD13A4835490978FF
:10090000405C5D2806D11320394908703FA0FFF7ED
:100910009CFC2BE042A0FFF798FC2E480078811E3B
:100920003048401CFFF71FFD4149087041A0FFF708
:100930008CFC2C484078412802D143A0FFF785FC6D
:100940000120144910310860002400E0641C434871
:100950008442FBDB4FF480300E49103108600024E4
:1009600000E0641C3E488442FBDB00BFACE700F0C3
:100970001F02012191404209920002F1E022C2F8D7
:100980000011704700000020040000200010024009
:100990000004004000080140000C0140003033001A
:1009A0002C2C014054696D6520697320676F6E655A
:1009B0002E204461746120726563656976652069E3
:1009C000732000001D0000207A65726F0000000097
:1009D0001E0000201F0000202020212020200000D9
:1009E0000438014024000020686921200000000034
:1009F00020000020434F4D4D414E445F4C45535322
:100A00005F355F434841522020000000535441525B
:100A1000545F53544F505F554E434F525220200065
:100A2000474F20544F2043524338202000000000FD
:100A30002100002052455455524E2046524F4D2021
:100A400043524338202000004D4F565F53544550C9
:100A5000535F585F504C55532020000020A10700E1
:100A6000A0860100704770477047754600F02CF86B
:100A7000AE4605006946534620F00700854618B08B
:100A800020B5FFF78DFBBDE820404FF000064FF08A
:100A900000074FF000084FF0000B21F00701AC46B3
:100AA000ACE8C009ACE8C009ACE8C009ACE8C009D2
:100AB0008D46704710B50446AFF300802046BDE870
:100AC0001040FFF75ABB0000004870474400002068
:100AD00001491820ABBEFEE7260002007047000067
:100AE0002DE9C04130B4DFF8A0C23CEA111418BFB0
:100AF0003CEA131400F0EC8081EA03051CEA1114AF
:100B000044EAD57418BF1CEA131500F0C780A4EBA3
:100B100005044FF0004545EAC12145EAC32341EAF7
:100B2000505143EA525304F17F74994204F5003462
:100B30004FEAC0204FEAC22208BF904200F09C80DA
:100B40004FEA13650FF24016765D4FEA134506FB38
:100B500005F7C7F1807706FB07F74FEAD737A7FB02
:100B600003687642C8F58038A7FB06CE38BFA8F1E7
:100B7000010807FB08E64FF0000EA6FB028CE6FB1F
:100B800003CEDCF1000CCEF1004E38BFAEF1010E09
:100B9000A6FB0C584FF000074FF00005E6FB0E8750
:100BA000A1FB08C6A0FB07CE16EB0E0645F100051B
:100BB000E1FB076515F1E04E7EBFA4F580345FEAE6
:100BC00046066D4116F1800745F100054FEA1727EB
:100BD0004FEA066647EA0567A6F1DE46B6F1805F92
:100BE0004FEA15251FD9384624F0010C05EBC471D6
:100BF000BCF1FE6F01EB0C1102D8F0BCBDE8008126
:100C000024425CBF01F5801E9EEAC47F02D4F0BC82
:100C1000BDE80081244238D4F0BCA1F1C041BDE858
:100C2000004100F032B94FEAD22242EA43524FEA81
:100C3000D323A7FB02864FEAD02040EA415007FBAE
:100C400003661EEA0E0F4FEAD12105FB026658BF6C
:100C5000A6EB0056B6EB00564FEA520E4EEAC37EA4
:100C600018EB0E0E56EB530EBDD518EB02085E4185
:100C70007F1C55F10005B6E74FF480154FF00007D3
:100C80004FF000064FF00008ADE7F0BC4FF0000059
:100C900001F1C04101F00041BDE8008111EA0C1FE3
:100CA0000CEA131500D00CE013EA0C1F00F02580AD
:100CB0004FF00000F0BC81EA030101F00041BDE803
:100CC0000081F0BCBDE8004181EA030100F0DDB81D
:100CD000F0BCBDE8004170B500F089F8097EFC3E2B
:100CE00000F007B881EA03014FF0000001F0004175
:100CF000704781EA030100F0C8B8F0BCBDE80041CC
:100D00004FF0000021497047FFFDFBF9F7F5F4F2C1
:100D1000F0EEEDEBE9E8E6E4E3E1E0DEDDDBDAD896
:100D2000D7D5D4D3D1D0CFCDCCCBCAC8C7C6C5C4F4
:100D3000C2C1C0BFBEBDBCBBBAB9B8B7B6B5B4B30B
:100D4000B2B1B0AFAEADACABAAA9A8A8A7A6A5A4F6
:100D5000A3A3A2A1A09F9F9E9D9C9C9B9A999998BA
:100D60009797969595949393929191908F8F8E8E5D
:100D70008D8C8C8B8B8A89898888878786858584EA
:100D800084838382828181800000FF070000F87FD6
:100D90004FEA41034FEA5353A3F58063D3F11E0397
:100DA000C8BFD3F1210C0CDD4FF0004242EAC12252
:100DB00042EA505232FA03FC8CEAE17CACEBE1707F
:100DC0007047102BC4BF0020704703F5787CBCF13E
:100DD000FF3F04D06FF0004282EA2100704770B5F7
:100DE00000F005F84992248000207047F2E70EF1E8
:100DF000020E2EF0030E5EF8046B364205D4012A73
:100E000043EB030515F5001F12D8012841EB010C37
:100E10001CF5001F0CD80ED14FEAD17C15F5001F30
:100E20000CEB4C0C0CF1020C08BF4CEBD37C04E037
:100E30004FF0080C01E04FEAD37C0CEB4C0526FA8E
:100E400005F606F00706B6F1040C06D20EEB860C8A
:100E5000BDE870404CF0010C6047DFE80CF0090B76
:100E600002024FF000414FF00000A1F5002170BDDB
:100E700019461046012851EB010418BFD4F500149F
:100E800084BF002001F0004170BD0808A0F50011EA
:100E90004FEA31017047000043004FEAD30C4FEA9C
:100EA0003C0C43401FBF40070CF1605113F0FE4F54
:100EB00070471CF0006F03D100200CF00041704718
:100EC0000CF0004343EA507010B540EACC0000F04B
:100ED000E5F800BF000000924FEA0001FFF7D5BF20
:100EE0004FF000414FF00000A1F5002170470000D5
:100EF00090EA010F48BF81F0004100F15281421A8F
:100F00003CBF801A89184FEAD0524FF07F4C1CEA40
:100F1000410FA2EBD15318BF9CEA026F00F03B8057
:100F20004FF0004C4CEA00204CEA012121FA03FC6E
:100F300010EB0C0C1ED202F1FF325FEA1C2040EBDA
:100F4000C25038BF70471CF07F0F4FEA400C18BFEB
:100F5000BCF17F4F38BF7047C3F12003994008BFF1
:100F600020F00100BCF17F4F38BF7047A0F1C040B6
:100F700000F0DAB84FEA3C00000A40EBC25028BF4C
:100F80001CF0FF0F4FEA400CE6D018BFBCF17F4FBA
:100F900038BF7047EAE79CEA026F05D010EA5C0FA1
:100FA00008BF00F00040704710B500F077F800BFB0
:100FB00064FBBE3E401058BFC0F14040491058BFCE
:100FC000C1F140418142EFF30080704750EA010CCB
:100FD00000F113801CF5000F58BFBCF5000F01D4C1
:100FE0008842704707D710F5000F58BF11F5000F62
:100FF00015D488427047894270471CF5000F04D50C
:10100000BCF5000FF7D5814270474FF0807C1CEB98
:10101000400F38BF1CEB410F01D28142704710B521
:1010200000F03CF8922449004FF000504FF08051FE
:10103000FFF7C0BF50EA010C00F113801CF5000F50
:1010400058BFBCF5000F01D48842704707D710F590
:10105000000F58BF11F5000F15D488427047894220
:1010600070471CF5000F04D5BCF5000FF7D5814281
:1010700070474FF0807C1CEB400F38BF1CEB410FDA
:1010800001D28142704710B500F008F8922449005F
:101090004FF000504FF08051FFF78CBF0EF1020E61
:1010A0002EF0030E5EF8044B244204D44FEA4102B2
:1010B000B2F17F4F11D84FEA4003B3F17F4F0CD804
:1010C0000ED14FEAD07CB2F17F4F0CEB4C0C0CF1FF
:1010D000020C08BF4CEBD17C04E04FF0080C01E09F
:1010E0004FEAD17C0CEB4C0324FA03F404F0070420
:1010F000B4F1040C06D20EEB840CBDE810404CF0A9
:10110000010C6047DFE80CF0070802024FF00040D6
:10111000A0F5800010BD0846420018BFD2F18072D1
:1011200088BF00F0004010BDFF2141EAD050C0054B
:10113000704751EA000C00F113801CF5000F58BFF6
:10114000BCF5000F01D48142704707D711F5000F9D
:1011500058BF10F5000F15D481427047894270477F
:101160001CF5000F04D5BCF5000FF7D58842704779
:101170004FF0807C1CEB410F38BF1CEB400F01D2BD
:101180008842704780EA010081EA000180EA01009C
:10119000FFF779BF90EA010F48BF81F000413FF5AA
:1011A000AEAE421A04D882F00042A0EB0200114415
:1011B0004FEAD0524FF07F4C1CEA410FA2EBD153C3
:1011C00018BF9CEA026F4AD04FF0004C4CEA002056
:1011D0004CEA012121FA03FCB0EB0C0C0FD412F005
:1011E000FE0F36D05FEA4C001DD5001240EBC25016
:1011F00038BF70471CF03F0F18BF70470BE0A2F1DB
:1012000001025FEA1C2040EBC25038BF70471CF05F
:101210007F0F18BF7047C3F12003994014BF401ED1
:1012200020F00100704780084FEA122308BF704782
:10123000B0FA80FCA2EB0C02CCF1280C60FA0CF0A6
:1012400093EA122F04BF00EBC25070474FEAC370FD
:101250007047130A5FEADC1008BF7047F6E79CEAA4
:10126000026F04D010EA5C0F08BF0020704710B571
:10127000FFF714FF40DFF63E81F0004070470000AA
:10128000A01200080000002024000000280100082F
:10129000C412000824000020840200004401000859
:1012A00000000000000000000000000014C814C886
:1012B000000000000000000000000000000000002E
:0412C00000003200F8
:040000050800018965
:00000001FF
