:020000040800F2
:1000000088020020890100088D0100088F01000886
:10001000910100089301000895010008000000000C
:100020000000000000000000000000009701000830
:1000300099010008000000009B0100089D010008D4
:100040009F0100089F0100089F0100089F01000810
:100050009F0100089F0100089F0100089F01000800
:100060009F0100089F0100089F0100089F010008F0
:100070009F0100089F0100089F0100089F010008E0
:100080009F0100089F0100089F0100089F010008D0
:100090009F0100089F0100089F0100089F010008C0
:1000A0009F0100089F0100089F0100089F010008B0
:1000B000E30300089F0100089F0100089F0100085A
:1000C0009F0100089F0100089F0100089F01000890
:1000D0009F0100084B0400089F0100089F010008D1
:1000E0009F0100089F0100089F01000800F002F82E
:1000F00000F03AF80AA090E8000C82448344AAF188
:100100000107DA4501D100F02FF8AFF2090EBAE885
:100110000F0013F0010F18BFFB1A43F0010318473B
:100120003407000054070000103A24BF78C878C193
:10013000FAD8520724BF30C830C144BF04680C60ED
:10014000704700000023002400250026103A28BF35
:1001500078C1FBD8520728BF30C148BF0B60704739
:100160001FB51FBD10B510BD00F039FB1146FFF7DC
:10017000F7FF00F0C2F900F057FB03B4FFF7F2FFFE
:1001800003BC00F05FFB000008480047FEE7FEE705
:10019000FEE7FEE7FEE7FEE7FEE7FEE7FEE7FEE737
:1001A00003480449024A044B70470000ED00000870
:1001B00088000020880200208800002000BFFA4943
:1001C000098801F040014029F9D1C1B2F64A121D57
:1001D00011807047F548806940F00400F349886158
:1001E0000846806940F480408861F148006840F02A
:1001F0003000EF4908600846006820F0C000086041
:100200000846006840F0800008600846006820F456
:10021000407008600846006820F4406008600846A6
:10022000006840F48060086040F24130DE490831E7
:100230000880081D008840F00C00091D0880084651
:10024000008840F4005008807047002100BF0CE097
:1002500000BFD54A128802F04002402AF9D1425C20
:10026000D14B1B1D1A804A1CD1B2425C002AEFD12F
:1002700070470EB50146002000BF04E000220DF8D3
:100280000020421CD0B20A28F8DB00200CE00A2231
:1002900091FBF2F302FB1312D2B20DF80020421CC4
:1002A000D0B20A2291FBF2F10029F0DC0FE000BF8E
:1002B000BD4A128802F04002402AF9D1421E1DF8C0
:1002C00002203032B84B1B1D1A80421ED0B20028CB
:1002D000EDD10EBDB548C06940F00100B349C86119
:1002E0008804008840F084008904088008468089DA
:1002F00040F0010088810020888541F63F70088524
:10030000002088840846808A40F040008882704738
:1003100000204FF0804188840846008840F00100AA
:10032000088070474FF08040008820F001004FF0B7
:1003300080410880704700B50246FFF7F3FF0020B8
:100340004FF08041888408468285FFF7E1FF00BDB9
:1003500030B502460B46002010E012F8014B604019
:10036000002109E000F080041CB1312484EA40043B
:1003700000E04400E0B2491C0829F3D31C1EA3F19D
:100380000103EAD130BD8948806940F008008749FF
:1003900088618848006820F0C000864908600846E7
:1003A000006840F0100008607047014621B94FF026
:1003B0000070804A0C321060022903D108027D4A85
:1003C0000C321060002070470146642903DD6E295D
:1003D00001D00E207047642901DC774801700020AD
:1003E000F8E700B54FF08040008A20F001004FF0A0
:1003F000804108820846008A20F040000882FFF70A
:1004000091FF6EA0FFF721FF7448007850B974A0E7
:10041000FFF71BFF0020744908707048007873498B
:1004200008700BE06D4800783030FFF7C7FE012000
:100430006D490870694800786C4908706CA0FFF736
:1004400004FF00206549087000BD00B50023FFF7D8
:1004500069FF5548001D0088C3B267485F490978A5
:1004600043545E480078401C5C4908700A20FFF73E
:1004700062FF00BD4D48006840F480304B49086081
:1004800000BF4A48006800F400300028F9D047480F
:10049000406840F00100454948600846806944F2E0
:1004A00004010843414988614148001F006820F465
:1004B00040403F49091F08600846006840F48050EA
:1004C000086039480C30008840F0200036490C3173
:1004D00008803648806940F0040034498861344817
:1004E000001F006820F440403149091F0860084699
:1004F000006840F48050086070470024FFF7BAFF9E
:10050000FFF768FEFFF7E6FEFFF73DFF3BA0FFF7B2
:100510009CFE1C2000F01DF9252000F01AF90A208D
:10052000FFF709FF0220FFF740FF11E135A0FFF7B9
:100530008CFE2D480078012835D100202A4908700A
:100540002A480078052806DA05202F4908702FA0D0
:10055000FFF77BFEFCE0284800785B280CD126489A
:1005600022490978405C5D2806D10220264908709E
:100570002CA0FFF76AFEEBE02FA0FFF766FE1B48FA
:100580000078811E1C48401CFFF7E2FE2E490870CF
:100590002EA0FFF75AFE2C48007818B103201A4904
:1005A00008705DE060E0BFE00038014000100240EC
:1005B00004080140040C01400500002054696D65E9
:1005C00020697320676F6E652E204461746120720C
:1005D000656365697665206973200000000000206E
:1005E0007A65726F00000000010000200200002008
:1005F0002020212020200000080000206869212000
:10060000000000003120000003000020434F4D4D4A
:10061000414E445F4C4553535F355F434841522040
:100620002000000053544152545F53544F505F55C3
:100630004E434F5252202000474F20544F204352E8
:10064000433820200000000004000020524554558B
:10065000524E2046524F4D20435243382020000036
:1006600041A0FFF7F2FD73E0434840784D282CD1BC
:100670004148807853280AD10020FFF796FE18B928
:100680003EA0FFF7E2FD02E041A0FFF7DEFD3A48A1
:1006900080784C280AD10120FFF787FE18B93FA0C7
:1006A000FFF7D3FD02E03AA0FFF7CFFD3248807894
:1006B00052280AD10220FFF778FE18B93DA0FFF7B3
:1006C000C4FD02E032A0FFF7C0FD2B48407853285C
:1006D00000D100BF284840785A2800D100BF2648E2
:1006E0004078582800D100BF23484078592800D1CD
:1006F00000BF21484078502800D100BF1E484078F4
:10070000412811D11C4880784C2804D11A48C0785F
:100710004E2800D000BF18488078462804D11648DB
:10072000C0784E2800D000BF082028490860002467
:1007300000E0641C26488442FBDB4FF40020234980
:100740000860002400E0641C22488442FBDB00BFF8
:10075000ECE600F01F02012191404209920002F1F3
:10076000E022C2F8001170474352435F554E434F99
:1007700052522020000000000800002053485F4D26
:100780004F44455F4F4646204F4B2020000000005D
:100790004552524F522120200000000053485F4D27
:1007A0004F44455F4F4E5F4C454654204F4B2020F1
:1007B0000000000053485F4D4F44455F4F4E5F526D
:1007C00049474854204F4B202000000010080140AA
:1007D00080841E00A08601007047704770477546F0
:1007E00000F02CF8AE4605006946534620F007009D
:1007F000854618B020B5FFF7D3FCBDE820404FF088
:1008000000064FF000074FF000084FF0000B21F0FA
:100810000701AC46ACE8C009ACE8C009ACE8C009C7
:10082000ACE8C0098D46704710B50446AFF30080B0
:100830002046BDE81040FFF7A0BC0000004870470C
:100840002800002001491820ABBEFEE72600020068
:100850007047000074080008000000200800000035
:10086000280100087C080008080000208002000021
:0C087000440100080000000000320000FD
:040000050800018965
:00000001FF
